:020000040800F2
:10000000680A0020450200088F3F0008393A0008BE
:100010008D3F0008A12600085142000800000000A2
:10002000000000000000000000000000933F0008F6
:10003000A326000800000000913F0008953F00083B
:100040005F0200085F0200085F0200085F0200080C
:100050005F0200085F0200085F0200085F020008FC
:100060005F0200085F0200085F0200085F020008EC
:100070005F0200085F0200085F0200085F020008DC
:100080005F0200085F0200085F0200085F020008CC
:100090005F0200085F0200085F0200085F020008BC
:1000A0005F0200085F0200085F0200085F020008AC
:1000B0005F0200085F0200085F0200085F0200089C
:1000C0005F0200085F0200085F0200085F0200088C
:1000D0005F020008454200085F0200085F02000856
:1000E0005F0200085F0200085F02000800F002F8EB
:1000F00000F098F80AA090E8000C82448344AAF12A
:100100000107DA4501D100F08DF8AFF2090EBAE827
:100110000F0013F0010F18BFFB1A43F0010318473B
:10012000DC440000FC440000103A24BF78C878C1C9
:10013000FAD8520724BF30C830C144BF04680C60ED
:10014000704700000023002400250026103A28BF35
:1001500078C1FBD8520728BF30C148BF0B60704739
:100160006E2900F02383702900F07F84662904F053
:10017000AF81652904F0AC81672904F0A981612968
:1001800004F0A88103681B0A28BF41F08001692997
:1001900000F09E80642900F09B80752900F0988013
:1001A0006F2900F00C84782900F04B84E92900F0D5
:1001B000A783E42900F0A483F52900F0A183EF29A7
:1001C00000F00984F82900F04A840368DB0928BF9D
:1001D00041F08001632901F03380732901F03880F8
:1001E000E32901F04380F32901F0488000207047A3
:1001F0001FB59DE8030001F021FC01F069F904003E
:100200000020002104F04EF9401C60600020002115
:1002100004F032F9E06001F039F81FBD10B501F0CB
:100220009EF810BD01F026F91146FFF7E1FF04F03A
:1002300055F801F0D5FB03B4FFF7F0FF03BC01F064
:10024000CFFD00000948804709480047FEE7FEE768
:10025000FEE7FEE7FEE7FEE7FEE7FEE7FEE7FEE776
:1002600004480549054A064B70470000F73F00085F
:10027000ED00000868040020680A002068060020DD
:10028000680600207CB51D4616460C00009001D083
:100290002044401E074B7B442A4669460190304665
:1002A00000F09DFA05461CB10020694600F0AAFA4C
:1002B00028467CBD750500000FB4044910B503AA9B
:1002C000029800F0ADFA10BC5DF814FB600300204A
:1002D0002DE9F0410646002410687529314616A51F
:1002E00010D000F0CFF9002802DA404213A507E051
:1002F00031688A0701D512A502E0490704D511A586
:10030000012401E000F0C7F900210A2206F12407C8
:1003100009E0B0FBF2FCB0FBF2F302FB1C00303052
:1003200078541846491C0028F3D123462A46304603
:10033000BDE8F04100F0E1B9000000002D00000030
:100340002B000000200000002DE9F05F89460446E4
:100350004FF0000ADFF874B1FB44C0F820A020463B
:10036000E1688847002874D0252806D0D4E9012107
:100370009047206A401C2062F1E700265F46204635
:10038000E16888472028054607DB312D05D278191A
:1003900010F8200C08B10643F1E7B00701D526F0AC
:1003A0000406C4F81CA00027C4F818A02A2D09D000
:1003B000284603F072FF38B304EB8708303DC8F8D5
:1003C000185019E059F8041B204604EB870291618C
:1003D000E1688847012F054618D1E069002820DA36
:1003E00026F020061DE0D8F8180000EB800005EB91
:1003F00040003038C8F818002046E16888470546B4
:1004000003F04BFF0028EED1012F0AD02E2D08D18A
:100410002046E16888477F1C0546022F46F02006EB
:10042000C4DBA069002803DA404246F00106A0615F
:10043000F00701D026F010066C2D0BD0682D09D0E6
:100440004C2D39D06A2D35D0742D35D07A2D33D03E
:1004500016E038E0E1682F4620468847B842054656
:1004600009D16C2F26D04FF48060E1680643204606
:100470008847054604E06C2F1AD04FF4807006437D
:100480000DB3A5F14100192802D8203546F40066C5
:100490004A462946204626604E46FFF761FE80B157
:1004A00001280BD0F61D26F0070000F1080956E7D9
:1004B0004020E4E78020D8E70020D6E706F10409D1
:1004C0004DE7284652E7206ABDE8F09F94410000BE
:1004D00030B505460B462A4613F8014B12F8010BBE
:1004E00008B1A042F8D01CB1002802D06D1CF1E781
:1004F000284630BD032A40F2308010F0030C00F093
:10050000158011F8013BBCF1020F624498BF11F84D
:1005100001CB00F8013B38BF11F8013BA2F1040206
:1005200098BF00F801CB38BF00F8013B11F003037E
:1005300000F02580083AC0F0088051F8043B083AE2
:1005400051F804CBA0E80810F5E7121D5CBF51F884
:10055000043B40F8043BAFF30080D20724BF11F8FE
:10056000013B11F801CB48BF11F8012B24BF00F863
:10057000013B00F801CB48BF00F8012B704710B5D4
:10058000203AC0F00B80B1E81850203AA0E818508B
:10059000B1E81850A0E81850BFF4F5AF5FEA027C4C
:1005A00024BFB1E81850A0E8185044BF18C918C0BB
:1005B000BDE810405FEA827C24BF51F8043B40F85C
:1005C000043B08BF7047D20728BF31F8023B48BF41
:1005D00011F8012B28BF20F8023B48BF00F8012B7F
:1005E00070474FF0000200B51346944696462039F6
:1005F00022BFA0E80C50A0E80C50B1F12001BFF4DC
:10060000F7AF090728BFA0E80C5048BF0CC05DF841
:1006100004EB890028BF40F8042B08BF704748BF8F
:1006200020F8022B11F0804F18BF00F8012B704703
:1006300070477047704770B5044685690068C10609
:1006400001D5302600E02026C00707D070BDD4E9D0
:10065000012130469047206A401C20626D1EF6D56D
:1006600070BD70B5044685690078C00707D170BDBC
:10067000D4E9012120209047206A401C20626D1E91
:10068000F6D570BD09684A0501D540B27047C90565
:10069000FCD500B2704709684A0501D5C0B2704761
:1006A000C905FCD580B2704770B50C460546012AD5
:1006B00005D02878800600D5EA69002302E00123EE
:1006C00005E05B1C934202D2E05C0028F9D1A869E6
:1006D000E618C01AA861286A184428622846FFF75D
:1006E000AAFF04E0D5E9012114F8010B9047B442B8
:1006F000F8D32846FFF7B5FF70BD2DE9F0470D464A
:1007000099469246044600F124080168880604D5FB
:10071000E06921F01001216000E00120A84201DD24
:10072000471B00E00027A1697A1902EB0900081AAB
:10073000A0612078C00602D42046FFF77CFF002687
:1007400008E0D4E901211AF806009047206A401C0D
:10075000761C20624E45F4DB2078C0060AD5204680
:10076000FFF769FF06E0D4E9012130209047206AB5
:10077000401C2062381EA7F10107F4DC07E0D4E931
:10078000012118F805009047206A401C2062281EAD
:10079000A5F10105F3DC2046FFF763FF2078000692
:1007A00002D50220BDE8F0870120FBE7116802684E
:1007B000006A530501D508700AE0D30501D5088009
:1007C00006E0130603D5C217C1E9000200E0086085
:1007D0000120704701694A1C02610878704700B522
:1007E0008FB0CDE901310021059105497944CDE96A
:1007F000031011466846FFF7A7FD0FB000BD0000CB
:10080000E5FFFFFF0A6802F8010B0A607047D1E9B3
:1008100000239A4202D2531C0B60107070470000F4
:10082000074B70B50D467B44FFF7D9FF04462846B9
:1008300000F028FD10B14FF0FF3070BD204670BDB4
:10084000973A00002DE9FF5F15468A460446DFF817
:10085000AC80F8440027D8E900103E46CDE90010EE
:1008600010E03AF816106A4602A800F0ABFD411CF1
:1008700007D02178890603D5E269391891420DD84D
:100880000744761C2078800602D5E069B84205DD71
:10089000AE42E6DB3AF816000028E2D1A069C01BA0
:1008A000A0612046FFF7C7FED8E90010CDE900108F
:1008B000002017E03AF818106A4602A800F082FDFE
:1008C000B0F1FF3F81460BD000250DF1080B05E08C
:1008D000D4E901211BF8050090476D1C4D45F7D365
:1008E00008F10100B0428046E4DB206A384420620F
:1008F0002046FFF7B6FEBDE8FF9F0000AE3C0000BB
:100900002DE9F0418046D21D22F007020025D2E9F0
:100910000002F52915A614D0011E72F1000106DAB5
:100920000023D0EB030063EB020211A608E0D8F825
:1009300000108B0701D50FA602E0490701D50EA6CE
:1009400001251146002408F1240704E000F09CF87A
:1009500030323A55641C50EA0102F7D12B46324638
:1009600021464046BDE8F041FFF7C7BE0000000049
:100970002D0000002B0000002000000030B40021FA
:1009800000F1240408E002F00705D208303542EAFD
:100990004372DB086554491C52EA0305F3D104682D
:1009A000002310A2250707D5A40600D421B1C469ED
:1009B00001230DA2641EC46130BCFFF79EBE10B5BA
:1009C000044621461068FFF766FE02462046BDE851
:1009D00010400023D2E7D21D22F00701D1E9002305
:1009E000CCE700000000000030000000F0B40D462D
:1009F0000188090502D5214C7C4402E01F4C7C444F
:100A00000E34002100F1240608E002F00F0712095D
:100A1000E75D42EA03721B097754491C52EA030757
:100A2000F3D102780023120704D5702D06D009B146
:100A3000022311342246F0BCFFF75FBE01231034BD
:100A4000F8E770B504460D4621461068FFF723FE0F
:100A5000024629462046BDE870400023C6E7D21D65
:100A600022F00703D3E90023C0E70368126843F0CC
:100A7000200303600823C3610023B7E7103B000095
:100A8000004870470804002030B5B0F10A024FEA70
:100A9000900E71F100034EEA817EB0EB0E0061EB27
:100AA00091014FEA101E4EEA017E10EB0E0041EB61
:100AB00011114FEA102E4EEA016E10EB0E0041EBC1
:100AC00011214FEA104E4EEA014E10EB0E0041EBA1
:100AD0001141401841F100014FEAD00040EA417055
:100AE0004FEAD10110EB80054FEA810444EA90748B
:100AF00044EB01046D1944EB0404521BA3414FF075
:100B0000000348BF0A3200D530BD401C41F100014E
:100B100030BD70472DE9FF4F0C461E464FF0FF37A2
:100B20008BB0D2E90001DDF860800A908A46C1F3FB
:100B30000A5505B93D46002108464FF00000BAF1BC
:100B4000000F00F4400005DA00EB80004FF4400194
:100B500001EA50004FEA9059B9F1010F00DDB946A2
:100B60000A9850EA4A000ED044F61050A5F2FF351C
:100B700045432F14B8F1000F1ED07542291E1EDD0B
:100B8000C9F100021CE0B8F1010F4FF0000001D0E4
:100B9000302103E0F24305E02154401CB042FBDB6E
:100BA00030460022002121540B99C1F80880C1E988
:100BB00000200FB0BDE8F08FBD1B6D1CDEE74A467C
:100BC00000DA694206A800F0EFFC06AB93E80700E4
:100BD00003AB83E8070050460A9901F099F98DE8C4
:100BE0000700A0F500501F3800900398002D0ADD83
:100BF00042F21F014A460844002303A903906846B5
:100C000001F002FC09E0A0F500504A461F3800231D
:100C100003A90390684601F00CFC8DE8070000046E
:100C2000000C03D04FF0FF30410800E01046B8F14F
:100C3000000F03D00022009215461EE0751E05D459
:100C4000FFF722FF303262556D1EF9D5B3460122FF
:100C5000084302D000227F1C04E02078302801D114
:100C600000227F1E002A099784D01DE0112D07DA8B
:100C7000FFF70AFF303262556D1C50EA0102F5D1D0
:100C8000084302D00098C8B10EE00021681E05E0BC
:100C9000235C625C63542254401E491C8142F7DB92
:100CA000AB46A81B401E0990002004F80B000B98CF
:100CB000099AC0F80880C0E9002B7AE711264FF0A6
:100CC000000857E72DE9F04F88460446D21D22F070
:100CD000070191B0D1E90001CDE90A0103F0B9FAA9
:100CE00002460B98C00F01D02D2007E02068810735
:100CF00001D52B2002E0202101EAC000032A09903F
:100D000001D0072A05DB03464146204600F00CFCD3
:100D10000BE12078800601D5E06900E00620B8F1FB
:100D2000650F814606D0B8F1660F18D0B8F1670F8D
:100D300070D131E00020B9F1110F009001DB1123D7
:100D400001E009F101030AAA01A90CA8FFF7E2FEDC
:100D5000DDE90C70002609F10105834647E001201A
:100D60004B4600904FF000470AAA01A90CA8FFF7D4
:100D7000D1FEDDE90DB00C995D46002610B909F1F0
:100D800001000D18B9EB050003D4C0F1FF3609F1DD
:100D90000105A5EB09002BE0B9F1010F01DA4FF0D5
:100DA00001090020B9F1110F0090484601DD11231F
:100DB00000E003460AAA01A90CA8FFF7ABFEDDE993
:100DC0000C704D4600268346207800070AD4AB45B8
:100DD00000DA5D4601A8012D04DD411911F8011C5E
:100DE000302907D04F4502DA17F1040F04DA012049
:100DF00082460FE06D1EEEE7002F02DCED1B3E4445
:100E000003E0781CA84200DD7D1CB81B00F1010A3C
:100E10004FF000472078000703D4AA4501DB4FF0CC
:100E2000FF3A0021B7F1004F0DF143088DF8431050
:100E300024D002202B23002F01DA7F422D230A2108
:100E4000021EA0F1010000DC5FB197FBF1FC97FBF3
:100E5000F1F201FB1C7C17460CF1300C08F801CDB7
:100E6000EEE7A8F1010003702188090501D54521AD
:100E700000E06521A0F1010800F8011C09980FA904
:100E8000A1EB0807FF1D00B10120411901EBEA7039
:100E9000A1693844081A401EA0612078C00602D417
:100EA0002046FFF7C8FB099828B1D4E901219047F3
:100EB000206A401C20622078C00622D52046FFF719
:100EC000BAFB1EE0002E04DBB34502DD01A8805D05
:100ED00000E03020D4E901219047206A401C2062C4
:100EE000761CAAF101005FEA000A0AD100F0F0FACC
:100EF000C0680168405CD4E901219047206A401C29
:100F00002062281EA5F10105DCDC07E0D4E90121FF
:100F100018F8010B9047206A401C2062381EA7F188
:100F20000107F3DC2046FFF79CFB032011B041E6EC
:100F30002DE9F04F04460D46D21D22F0070089B07E
:100F4000D0E900974846394603F083F90246F80F86
:100F500001D02D2307E02068810701D52B2302E073
:100F6000202101EAC0038DF820300BB1012000E000
:100F70000020032A824601D0072A04DB29462046A6
:100F800000F0D2FA3FE12078800601D40D2500E080
:100F9000E569C7F30A560D2D49DA00214FEA175BC0
:100FA00008464FF00000002F00F4400007DA00EB85
:100FB00080004FF4400100EBD07001EA6000811521
:100FC000012901DD4FF0FF3100224FEA850CBCF111
:100FD000180F06D31346ACF118004FF08052C240F0
:100FE00003E04FF4801323FA0CF30CF10C0CBCF16A
:100FF000200F04D3ACF1200C09FA0CF001E007FA41
:101000000CF000294FF0004801DD18B90FE00ED1B7
:1010100040450CD319EB02095F4121B9404502D18B
:101020009F4329EA0209BBEB175F00D0761C20889A
:10103000000502D57B48784402E07A4878441938A4
:1010400008AA302302F80A30037C0AF10101002EBD
:101050000AF1020A53546A4602DC4FF0300101E003
:101060004FF031014FF001088DF8001002D0A6F2C8
:10107000FF3603E059EA470100D06B4E002D02DC39
:101080002178090704D54FF002082E218DF80110B0
:10109000C44600210BE0C7F303433F01C35C491C76
:1010A0006D1E02F80830052908F1010801DA002D4B
:1010B000F1DC00210CE000EB1973491C1B786D1E5C
:1010C000082902F808304FEA091908F1010801DA85
:1010D000002DF0DC21688B0602D516E0A8F101088E
:1010E000E04505DD02EB080313F8013C302BF5D099
:1010F000B8F1000F09DD02EB080313F8013C2E2BB9
:1011000003D1090701D4A8F10108002D05DD3E2116
:1011100002F808106D1E08F10108407C002E02F84C
:10112000080008F1010804DA2D20764202F80800D0
:1011300002E02B2002F808000A214FF47A70864260
:1011400008F101080BDB96FBF0F3303302F80830AE
:1011500096FBF0F308F1010800FB136601E0642E32
:101160000CDB642096FBF0F3303302F8083096FB7A
:10117000F0F308F1010800FB136601E00A2E06DB1C
:1011800096FBF1F0303002F8080008F1010896FBF8
:10119000F1F001FB1060303002F80800A16908F19D
:1011A000010808EB050202EB0A00081AA06120788A
:1011B000C00602D42046FFF73EFA216A08AE01EBD2
:1011C0000A00206204E0D4E9012116F8010B9047DF
:1011D000BAF1010AF7D22078C00602D52046FFF7FF
:1011E0002AFA6E4609E016F8010B3E280FD0D4E922
:1011F00001219047206A401C2062B8F10108F2D218
:101200002046FFF72EFA09B00320BDE8F08F206AD0
:101210002844206203E0D4E90121302090476D1E6C
:10122000EBD3F8E70D35000002FCFFFF10B5436972
:1012300013B1AFF3008001E0FFF736FA012010BDD3
:10124000127800F124010A7000224A700122EDE7B1
:1012500011684FF0FF32E9E710B5436913B1AFF3FE
:10126000008001E0FFF7EEFA012010BD128800F1C6
:10127000240182840022C2840122EDE711684FF02C
:10128000FF32E9E7007B00F08000704710B542486C
:101290005421FFF7A6F941485421FFF7A2F940482D
:1012A0005421FFF79EF93F493B483C4A3F4B0860B9
:1012B0003D490A603A491960531C0365481C106592
:1012C000012008653B48344A39A1784400F0ECFA23
:1012D00020B9384878440A3800F08BFB37482F4A49
:1012E00035A1784400F0E0FA20B9344878440A384F
:1012F00000F07FFB32482A4A2FA1784400F0D4FA4C
:1013000020B92F4878440A3800F073FB4023224864
:10131000DC000021224600F0A4FA20B125487844E0
:10132000543800F066FB1D4822464023002100F09F
:1013300098FA20B121487844543800F05AFB1848F4
:1013400022461023002100F08CFA002806D01C4809
:101350007844BDE81040563800F04BBB10BD104833
:1013600070B5006D20F001040B4800F013FB0B4832
:1013700000F010FB0A4800F00DFB09E0206D20F0A2
:101380000105204600F006FB204600F0A5F82C469B
:10139000002CF3D170BD00000C030020600300207E
:1013A000B4030020180000201C00002020000020B2
:1013B000720000008C3200007700000078320000DC
:1013C0006432000070B516460C46054600F078F809
:1013D000036893F80101012806D0FF2C0FD8185D8F
:1013E00068B101202C7070BDD3F807013246214648
:1013F00003F2071303442846BDE8704018474FF036
:10140000FF3070BD0EB5CDE9000100F089FC0290FF
:1014100069460120ABBE0EBD08B5694600900220AA
:10142000ABBE08BD1FB58DE8070069460520ABBE01
:1014300004B010BD1FB58DE80F0069460620ABBE95
:10144000F6E708B5694600900920ABBE08BD1CB59B
:10145000CDE9000169460A20ABBE1CBD704708B546
:10146000694600900C20ABBE08BD000000487047E4
:10147000080400207546FFF7F9FFAE4605006946EF
:10148000534620F00700854618B020B5FEF7E8FE69
:10149000BDE820404FF000064FF000074FF0000875
:1014A0004FF0000B21F00701AC46ACE8C009ACE8F6
:1014B000C009ACE8C009ACE8C0098D46704700001F
:1014C00010B500F005F8001D10BD00BFD92F0000B9
:1014D000004870472804002070B50446051F00F03E
:1014E00091FA0068002C14BF446870BD002C18BF2E
:1014F000AC423CBF20466468F8D301680A18AA428F
:1015000018BF456003D12A68054611440160286868
:101510004119A1421CBF6C6070BD6168696021689F
:101520000844286070BD00002DE9F0411F460446C4
:1015300003260168072A01F4006004DB08B116A540
:1015400005E016A503E008B115A500E015A521F0FA
:1015500010002060A069C01EA0610FB1401EA061F4
:101560002046FFF768F84FB1D4E90121384690478B
:10157000206A401C2062C01C206206E0206AFAE754
:10158000D4E9012115F8010B9047761EF8D22046C8
:10159000FFF767F8BDE8F0814E414E006E616E00C6
:1015A000494E4600696E66002DE9F04781461646B1
:1015B0008AB0354878440DC88DE80D00324878442B
:1015C000801C03AC0DC884E80D0041F69B30084434
:1015D000372190FBF1F290FBF1F5A5F1800501FBBD
:1015E00012041B3C02D56442012000E00020DFF819
:1015F00098A080460027FA44AAF1BE0A0EE0E00750
:101600000AD03246684607EB470101230AEB810105
:1016100000F00FFF8DE8070064107F1C002CEED156
:10162000194F7F44AE3F19E0E80715D007EB0410CF
:101630000DF1180A90E80E008AE80E00C068F0422A
:1016400001D1981908903246012306A903A800F099
:10165000F0FE03AB83E807006D10641C002DE3D19E
:101660004FF0010332466946B8F1000F03A802D0DB
:1016700000F0CAFE01E000F0DCFEC9E90001C9F893
:1016800008200AB0BDE8F0872C3000002DE9F047B3
:1016900005460C46C86820F4201040F48000C8605D
:1016A000800602D5084600F0FAFAE06841F28201AD
:1016B0004FF0FF390140022903D0204600F098FA8C
:1016C000B5E000F42041B1F5004F0FD1C00306D5BD
:1016D0006168E06A884200D80846606006E02069D8
:1016E000E06260606069FFF7BAFEA061A068002256
:1016F000EEB200280DDAE1688B050AD4C043A06081
:1017000041F490302260E0606068411C61600670C6
:10171000A5E0E0689046226040F40050E060206957
:1017200068BB6069FFF78DFE012704F12405A0B1B5
:10173000A08910F4407F08D0E06900F0AEF9206184
:1017400018B1E06840F4006016E0E7612561E068E8
:1017500020F4407040F480600EE0E06900F09DF9F4
:1017600000282061F1D0E06840F4006010F4407F70
:10177000E06002D140F48070E06020696060E06861
:1017800025696FF0010AC1051FD56168E06A8842CA
:1017900000D80846411B04D02246284600F032FA01
:1017A000F0BBE068010203D5E562C4E9015854E0EA
:1017B000691CE1626160E16940F48030491EC4E95E
:1017C000021030462E70BDE8F087010202D500F409
:1017D00080320AE06068411C61600670E0680A2E91
:1017E00040F48030E06006D00022E16A6068814207
:1017F00003D90B4602E00122F7E70346A7895B1BEA
:101800007F0503D4E7699F4200DDE2B1814200D841
:101810000146E5620F1AC4E90158002B09DD00E01A
:1018200005E022461946284600F0ECF908B1484682
:10183000C9E747B1A069E5626560C01BA061E068C7
:1018400040F01000E060E068000208D56168A0691F
:10185000E562491B08446560A0615046B3E7304625
:10186000B1E770B5C468A50713D0650211D4B2F50D
:10187000807F09D0B2F5007F06D0B2F5806F08D125
:10188000012300F1240106E05D1E6FF07F46B542A2
:1018900001D3012070BD0161C361416024F4706116
:1018A0001143C160002070BD2DE9F0410C46074690
:1018B0001646104600F06EF82078611C61280AD0A8
:1018C000722802D077283CD102E00125002405E0EF
:1018D0000225042402E0082448F2020511F8010B55
:1018E0002B2806D0622809D011F8010C74280AD0E0
:1018F0000BE045F0030544F00204EFE745F0040572
:1019000044F00104EAE744F0100438462146FFF7AA
:1019100079FD411C15D00021316171604FF40071D7
:10192000F560F1617061200704D530460222002184
:1019300000F0E2F8306D40F0010030653046BDE85F
:10194000F0810020FBE72DE9F0410D460646104CE2
:10195000206DC10704D0410804D020F00104F7E74E
:1019600022460EE0542000F098F807000ED0206DBB
:1019700047F001010843542120653846FEF731FE47
:101980003A4629463046BDE8F0418DE70020D6E7CB
:101990000C0300202DE9F04704464FF000094FF0FA
:1019A000FF37C568D4E90486A80707D0204600F0B1
:1019B00053F93046FFF730FD002802DA3846BDE81B
:1019C000F087280502D54046FFF786FD4C212046CA
:1019D000FEF707FE206D20F0010020654846EEE787
:1019E00010B50446AFF300802046BDE81040FEF776
:1019F00022BC10B500F07AF9BDE8104000F070B9D3
:101A0000704700000048704710040020704770477E
:101A10007047704738B504460A4600206946AFF360
:101A20000080002808BF38BD02460099204600F01B
:101A3000E4F9012038BD012000F033BAF8B5AFF366
:101A40000080054600200C46102000BF0646A8195D
:101A5000A0420DD9324669460020AFF3008007004E
:101A600008BF00F01EFA0098A04218BF0546C4192E
:101A7000FFF7C8FF05600746F01D20F00700461974
:101A8000284600F0B3F9B44208BFF8BDA21B3146A6
:101A90003868BDE8F84000F0B0B970B50646FFF709
:101AA000B1FF056806F10B0020F00704B4429CBFAB
:101AB000002070BD2B466A68BAB11068A04210D3EE
:101AC00004F1080188423CBF5068586007D3516850
:101AD000101941601168091B016058601460101DE5
:101AE00070BD13465268002AE7D121462846FFF709
:101AF00091FF0028DED170BD2DE9F0410446164665
:101B00000D464769007B80072ED03846FFF799FCC9
:101B100050BB3EB3012E02D0022E25D104E0204658
:101B200000F085F905441DE03846FFF798FCE168B0
:101B3000002841F01001E16005DA204600F058F875
:101B40000120BDE8F081C9030BD56268E16A9142CA
:101B500000D81146A26911442269891A814200DD28
:101B600008460544002D01DA0220EAE7E16A6068D0
:101B7000E268814206D29103E06203D522F400318B
:101B800041F01002A6690027AE4213DCE16A8142EF
:101B900001D90B4600E0034603EB060C2369ACEBCE
:101BA000030CAC4506DD814201D98C4600E0844639
:101BB0009C4505D1A760276042F02000A5620DE09A
:101BC000AD1BE669AE1B8142A66000D90846C01A6B
:101BD000281A20605819606022F02000034908404C
:101BE000E060002084F84870ABE70000BFCFD7FF6B
:101BF000C16821F4001141F08001C16000218160C1
:101C0000016070472DE9F047814614460E464FF0BB
:101C1000FF383248D5685769054209D03846A1696E
:101C2000FFF715FC002811DB2C48C0430540E56098
:101C30002B46324649463846FFF7F4FBA16920F0AF
:101C40000042B21A11440028A16103D02046FFF7D8
:101C5000CFFF4046BDE8F08770B504460569C06A0D
:101C60006168884200D80846E16821F42011E160EB
:101C7000C90312D5A84208D02246411B2846FFF7C7
:101C8000C1FF10B14FF0FF3070BD0020E562C4E924
:101C90000150E06820F48030E060002070BD10B595
:101CA0000446C06820F02000E060A16AA069884274
:101CB0000DD02046FFF7D0FFE06820F4405040F000
:101CC0001000E060A06AA0612069E062606044F2F8
:101CD0004001E0688843E06010BD00001000020091
:101CE000002801D000F07CB87047000010B5014614
:101CF00002A000F0BDF8012010BD0000534947527A
:101D0000545245443A2052656469726563743A20BE
:101D100063616E2774206F70656E3A2000000000CA
:101D200010B5431C02E010F8011B71B18107FAD114
:101D30004FF0013202C88C1A8C4314EAC211F9D058
:101D4000C01A0A0603D0C01E10BDC01A10BD0A0476
:101D500001D0801E10BD0902FCD0401E10BD000045
:101D60004FF0013C50F8042B51F8043B9A4221D12A
:101D7000A2EB0C03934313EACC1317D150F8042BB6
:101D800051F8043B9A4215D1A2EB0C03934313EA9A
:101D9000CC130BD150F8042B51F8043B9A4209D1D3
:101DA000A2EB0C03934313EACC13DBD04FF00000FB
:101DB000704700BFD01A01BAB1FA81F101F01801E1
:101DC00022FA01F0CB40C1F12001DBB2C0B2C01A4F
:101DD0002CFA01F3D11A914311EAC311E6D17047ED
:101DE00001491820ABBEFEE7260002000021016079
:101DF000C0E90110704710207047034640688C46C8
:101E0000002818BF88423CBF03464068F8D31868D2
:101E10001844884207D00CF1030020F00700001D91
:101E2000411A521A0146081D0A60FFF755BB10B54A
:101E30000146C268900703D0900607D5886A0AE079
:101E4000FEF71EFE01210160881E10BD8B694868E7
:101E500018440B69C01A91F848301BB191F8491029
:101E6000401A10BD1103FCD50028FADD401E10BD3C
:101E700070B505460C460A2000E06D1C00F018F80D
:101E800035B128780028F8D102E0641C00F010F881
:101E900014B120780028F8D1BDE870400A2000F085
:101EA00007B810B500F00CF8BDE81040FFF718BFF8
:101EB00008B569468DF800000320ABBE08BD0000E0
:101EC00010B5012805D0002103A0FFF7D1FF0120A4
:101ED00010BD09A1F8E7000053494752544D454D44
:101EE0003A204F7574206F662068656170206D65BB
:101EF0006D6F7279000000003A2048656170206DB6
:101F0000656D6F727920636F7272757074656400AD
:101F10005FEA400C08BF91F0000F4FEA8C234FEAB4
:101F2000C12243EA51514FEA1C5018BF00F5F0405E
:101F30004FEA300018BF41F000415FEA6C5C00F0EE
:101F40002980BCF1FF3F08BF40F080407047130C70
:101F500006BF12044FF0100C4FF0000C130E04BF1C
:101F600012020CF1080C130F04BF12010CF1040C47
:101F7000930F04BF92000CF1020CD30F04BF520068
:101F80000CF1010C11464FF00002A0F11F00A0EB74
:101F90000C00704711F0004F08BF704731F000414E
:101FA0003FF4D5AF0B0C06BF09044FF0100C4FF0F7
:101FB000000C0B0E04BF09020CF1080C0B0F04BF40
:101FC00009010CF1040C8B0F04BF89000CF1020C09
:101FD000CB0F04BF49000CF1010CCCF12003A0EBA6
:101FE0000C0022FA03F302FA0CF241EA030100F1B9
:101FF0000100704720F07F4C80EA030023F07F4708
:10200000ACEB070303F57C5300F0004003F1FF0342
:102010002DE980494FEA154B09B44FEA144325EAEC
:102020000B4E24EA03480FF2042606EB1327490857
:102030003E785FEA320203FB0667C7F5000707FB3D
:1020400006F64FEA54374FEAD64606F1020607FB7A
:10205000066CCCF1005C4FEA1C472CEA074C07FBEE
:1020600006F40CFB06F504EB15464FEA961634BF52
:1020700000204FF000404FEAD13706FB07FC4FEA43
:102080001C4C0CFB0BF7D21B03FB0CF761EB07019D
:102090000CFB0EF7B0EB074072EB17420CFB08F796
:1020A00034BFA2EB0742B2EB074261EB17414FEAA4
:1020B0000C444FEA910706FB07FC4FEA1C4C0CFB53
:1020C0000BF7B0EBC74072EB573203FB0CF734BF92
:1020D000A2EBC742B2EBC74261EB57310CFB0EF7E4
:1020E000B0EBC70072EB57720CFB08F734BFA2EBE2
:1020F000C702B2EBC70261EB5771039F4FEA8161E0
:1021000041EA921104EBCC044FEAD1374FEA8262E4
:1021100006FB07FC42EA90124FEA80604FEA1C4C33
:102120000CFB0BF7D21B03FB0CF761EB07010CFB5D
:102130000EF7B0EB074072EB17420CFB08F734BF09
:10214000A2EB0742B2EB074261EB17414FEA8C5515
:102150004FEA910704EB9C2406FB07FC4FEA1C4C5A
:102160000CFB0BF7B0EBC74072EB573203FB0CF7DD
:1021700034BFA2EBC742B2EBC74261EB57310CFB55
:102180000EF7B0EBC70072EB57720CFB08F734BFC9
:10219000A2EBC702B2EBC70261EB577115EB4C25FE
:1021A0004FEA816141EA92114FEA82624FEAD137E8
:1021B00042EA901206FB07FC44F100044FEA8060FB
:1021C0004FEA1C4C0CFB0BF7D21B03FB0CF761EB2B
:1021D00007010CFB0EF7B0EB074072EB17420CFB4C
:1021E00008F734BFA2EB0742B2EB074261EB17419D
:1021F00015EB1C154FEA813141EA92414FEA8232D8
:1022000042EA90424FEA80304FEA0C7644F10004F3
:1022100048EA03434EEA0B484FF0000EB2EB080CBD
:1022200071EB030724BF624639464EEB0E0E4FF0AA
:10223000000B0018524149414BEB0B0BB2EB080C61
:1022400071EB03077BF1000B24BF624639464EEB6E
:102250000E0E4FF0000B0018524149414BEB0B0B97
:10226000B2EB080C71EB03077BF1000B24BF624655
:1022700039464EEB0E0E51EA020718BF46F0010632
:1022800016EB0E7655F1000254F1000103D5BDE8BE
:102290008901BDE80088BDE88901BDE80048B6199C
:1022A000524141EB0101A3F10103704780807F7E21
:1022B0007D7C7B7A797877767675747372717170BC
:1022C0006F6E6E6D6C6C6B6A6A696868676666656E
:1022D0006464636362616160605F5F5E5E5D5D5CFC
:1022E0005C5B5B5A5A59595858575756565555556D
:1022F0005454535352525251515050504F4F4F4ECD
:102300004E4D4D4D4C4C4C4B4B4B4A4A4A4949491A
:10231000484848474747474646464545454444445C
:10232000444343434342424242414141002B9C4685
:1023300030D477002BD01CB54FEA370703B44FF0E9
:1023400010004FF01001BAF1000F06D0BCF1000FE1
:10235000DCBF40F0080040F008014FF000000FBC67
:10236000BDE810400BF1010BBBF1010F08BF5FEAA4
:10237000170722BF12F1010211F101014FF00041D4
:1023800043F1000300F0004043EA00007047F9D336
:102390005708D0E746EA064613F1400F4FEA1646C3
:1023A0001FDD13F1200FDFBF16430A460021203343
:1023B0005B42BED0C3F1200746EA064602FA07F7A1
:1023C0004FEA164646EA0706C3F1200722FA03F24F
:1023D00001FA07F721FA03F14FF0000342EA07027E
:1023E000A7E746EA020646EA06464FEA164646EAE6
:1023F0000106BCBF46EA0646360C4FF000034FF01C
:1024000000024FF0000194E72DE9804C9A46934674
:1024100070B491E8380007C831EA400C48BF34EA8C
:10242000430C03D5FFF7E6FDFFF780FFF0BCBDE8E6
:10243000008C2DE9804C9A46934670B491E83800A0
:1024400007C810F0804F08BF13F0804F03D100F091
:1024500005F8FFF76BFFF0BCBDE8008C20F07F476C
:1024600080EA030023F07F4C07EB0C03A3F57C53B9
:1024700000F00040A3F1FE0392F0000F00F0B380E3
:1024800095F0000F00F077802DE901494FEA1140E7
:102490004FEA144621EA004800FB06FC24EA0647FE
:1024A00008FB06F607FB08F800FB07F718EB0648E1
:1024B0004CEB164C4FEA124B18EB07484FEA154607
:1024C0004CEB174022EA0B4E0BFB06FC25EA0647B5
:1024D0000EFB06F607FB0EFE0BFB07F71EEB064E88
:1024E0004CEB164C4FF000061EEB074E4CEB174B17
:1024F00018EB0B0840F1000018EB0E0B58EB00082E
:1025000040F100008F1A4FF000013CBFC943661B29
:1025100014BFB5EB040C00213CBFC943F61B4FEAC6
:1025200017444EEA8E0E27EA04454FEA1C4704FB87
:1025300007622CEA074C05FB07F70CFB05F604FBCA
:102540000CFC16EB074642EB174216EB0C4642EB2F
:102550001C421BEB060658EB0202414146EA9E066E
:1025600001D5BDE80189B619524141EB0101A3F142
:102570000103BDE801894FEA14454FEA114724EAF7
:10258000054621EA074C05FB07F406FB07F70CFBA1
:1025900006F105FB0CFC11EB074144EB17444FEA35
:1025A000124711EB0C4144EB1C4422EA074C05FB9B
:1025B00007F206FB07F70CFB06F605FB0CFC16EB17
:1025C000074642EB174216EB0C4642EB1C456A18D5
:1025D00054F1000148BF7047B619524141EB010167
:1025E000A3F10103704795F0000F37D04FEA114275
:1025F0004FEA144721EA024624EA074C02FB07F19E
:1026000006FB07F70CFB06F402FB0CFC14EB07447B
:1026100041EB17414FEA154714EB0C4441EB1C41C9
:1026200025EA074C02FB07F506FB07F70CFB06F64D
:1026300002FB0CFC16EB074645EB174516EB0C4668
:1026400045EB1C42121951F1000148BF7047B61901
:10265000524141EB0101A3F1010370474FEA1445D8
:102660004FEA114724EA054621EA074C05FB07F12A
:1026700006FB07F70CFB06F24FF0000605FB0CFC0F
:1026800012EB074241EB174112EB0C4251EB1C419C
:1026900048BF7047921841EB0101A3F10103704755
:1026A000FEE7704772B6FEE710B590F821100022E1
:1026B000022905D00421816380F82020012010BD6B
:1026C00001680B6823F00E030B6001680B6823F0B0
:1026D00001030B6090F84030C46B012101FA03F351
:1026E000636080F8211080F82020104610BD0000A3
:1026F00010B590F821100024022903D00421816331
:1027000001243DE001680A6822F00E020A600168B7
:102710000A6822F001020A601A4A0168914201D156
:10272000012121E0174A1432914201D110211BE00E
:10273000144A2832914201D1891515E0114A3C32E0
:10274000914201D189140FE00E4A5032914202D1D8
:102750004FF4803108E00B4A6432914202D14FF4C9
:10276000801101E04FF08071064A083A5160012162
:1027700080F82110002180F82010416B01B18847BA
:10278000204610BD0800024070B5044600F0FEF877
:102790000546601C02D004480078044400F0F6F8B6
:1027A000401BA042FAD370BD080000202DE9F84F6D
:1027B000DFF8B891002409F1040A0AF1040B23465A
:1027C0000F270BF1040EC9E00125A5402A40AA42BB
:1027D0007DD1674ED1F804C0ACEB0608B44532D0C9
:1027E00014DCBCF1030F3AD009DCBCF1000F2AD095
:1027F000BCF1010F1CD0BCF1020F31D11DE0BCF1C6
:10280000110F17D0BCF1120F2AD119E0B8F5881FAB
:1028100019D006DCB8F5803F15D0B8F5801F1FD160
:1028200011E0B8F5001F0ED0B8F5041F18D10AE06A
:10283000CB6815E0CB681B1D12E0CB6808330FE0B6
:10284000CB680C330CE08B682BB1012B4FF00803E5
:1028500003D0456104E0042302E0056100E00023A9
:10286000FF2A01D8064601E000F104064FEA84057C
:1028700001D9A5F12005D6F8008007FA05FC28EA61
:102880000C0803FA05F548EA0508C6F800804D680B
:10289000ED0062D5374DAE6946F00106AE61AD6917
:1028A00024F0030605F001050095334D06EB050CF9
:1028B000DCF80850A607360F07FA06F825EA0805DF
:1028C000DFF8B880404503D14FF0000817E044E03E
:1028D000DFF8AC80404502D14FF001080FE0DFF88F
:1028E000A480404502D14FF0020808E0DFF898804C
:1028F000404502D14FF0030801E04FF0040808FA08
:1029000006F848EA0508CCF808804D68D9F8006058
:10291000ED034D4601D5164300E096432E604D6809
:10292000DAF80060AD03554601D5164300E0964342
:102930002E604D68DBF80060ED025D4601D5164360
:1029400000E096432E604D68DEF80060AD027546EB
:1029500001D5164300E096432E60641C0D682A469C
:10296000E5407FF431AFBDE8F88F0000000401407E
:10297000000011100010024000000140000801405A
:10298000000C014000100140001401400148806823
:10299000704700000800002070B5040025D094F8AE
:1029A0003D00002520B984F83C50204600F078FA1C
:1029B000242084F83D002068016821F001010160B5
:1029C0002068016841F4004101602068016821F439
:1029D0000041016000F0C0FB4D4A6168914201D89E
:1029E0004C4900E04C49884201D2012070BD4B495E
:1029F0002368B0FBF1F15E6826F03F060E435E608F
:102A00006368934206D94FF4967359434FF47A732F
:102A1000B1FBF3F12368491C1E6A26F03F063143DF
:102A200019626168914210D84900401EB0FBF1F272
:102A3000521CC2F30B02042A01D2042022E0B0FB94
:102A4000F1F0401CC0F30B001CE0A268F2B301EBF4
:102A5000C10303EB0116431EB3FBF6F35B1C43F407
:102A600080431B0549D092B301EBC10202EB011177
:102A7000401EB0FBF1F0401CC0F30B0040F480405E
:102A800040F400402168CA694CF6FF739A43104332
:102A9000C861D4E9071001432068026822F0C0022F
:102AA00011430160D4E9030101432068826848F2C0
:102AB000FF339A4311438160D4E90501084321683B
:102AC000CA6822F0FF021043C86001E00EE016E081
:102AD0002068016841F0010101602564202084F82C
:102AE0003D00256384F83E50002070BD01EB410697
:102AF000431EB3FBF6F35B1CB3E70120C2E701EB17
:102B00004101401EB0FBF1F0401CC0F30B00B7E7E1
:102B1000A086010080841E0000093D0040420F0095
:102B20002DE9FF4F83B00025DDE910799A469346E1
:102B30000446DDF848800095FFF728FF064694F824
:102B40003D0020287CD1192301228549204600968A
:102B500001F082F80028F5D194F83C0001286FD0EC
:102B6000012084F83C0020680168C90703D101688E
:102B700041F0010101602068016821F400610160F9
:102B8000222084F83D00402084F83E0025646762DE
:102B9000A4F82A90608D20857248E062CDE9008615
:102BA00053465A462046049900F05EFF00287DD126
:102BB000208DDFF8B491202768B1012814D00228B5
:102BC000206801681ED041F480610160206841697D
:102BD00080690090B6E020684169816900910168D0
:102BE00041F400710160ADE02068016821F480616A
:102BF000016072B62068416981690091016841F401
:102C000000710AE041F40061016072B62068416918
:102C100081690091016821F48061016062B691E0F0
:102C2000032868D801280CD0022843464FF0000240
:102C30004946204600960FD001F00EF8B0BB10E0D8
:102C40008BE032464146204601F085F870BB206893
:102C50000069616A08706CE000F0FEFF30BB72B67C
:102C600034E02068016821F48061016072B6206858
:102C70000069616A0870606A401C6062208D401EB5
:102C80002085608D401E6085384846F2A811006896
:102C9000B0FBF1F0C0EBC00000EB80000090401EE4
:102CA000009008D020684069C04300E029E0400758
:102CB0000CD50098F3E744F8305F6773A57320697B
:102CC00040F02000206162B625731AE02068016898
:102CD00041F40071016020680069616A0870606AEF
:102CE000401C6062218D491E2185618D491E6185D0
:102CF00062B621681BE032464146204601F02BF8BF
:102D000018B1012007B0BDE8F08F20680069616A42
:102D10000870606A401C6062218D491E2185618DAA
:102D2000491E618521684A69D24352070AD409695C
:102D30000170606A401C6062208D401E2085608D9D
:102D4000401E6085208D00287FF46AAF84F83D70B6
:102D500084F83E5084F83C50D4E70220D2E70000CB
:102D6000020010000000FFFF04000100140000201A
:102D70002DE9FF4F83B09A46DDE91197934604464B
:102D8000DDF84080FFF702FE054694F83D0020285C
:102D90007FD11923012240492046009500F05CFFB5
:102DA000002876D194F83C00012872D0012084F8E4
:102DB0003C0020680168C90703D1016841F00101A6
:102DC00001602068016821F400610160212084F81D
:102DD0003D00402084F83E0000262664C4F824808C
:102DE000A4F82A90608D20852C48E062CDE900751A
:102DF00053465A462046049900F0B4FE70B930E0BC
:102E00002A463946204600F0D9FF58B1206C0428E4
:102E100004D12068016841F400710160012007B00D
:102E2000BDE8F08F606A216800780861606A401C24
:102E30006062218D491E89B22185628D521E628594
:102E400022685369DB435B070BD469B100781061DA
:102E5000606A401C6062208D401E2085608D401E8F
:102E60006085208D0028CBD12A463946204600F0C7
:102E7000CDFE0028CAD154F83D0B016841F4007121
:102E80000160202004F81E09E67766770020C6E777
:102E9000FFE70220C3E70000020010000000FFFF70
:102EA00010B586B000210091019102910391006854
:102EB0000F4988421AD10F4CA06940F00800A06168
:102EC000A069694600F008000490C020009012201C
:102ED0000190032003900848FFF768FCE06940F484
:102EE0000010E061E06900F40010049006B010BD2D
:102EF0000054004000100240000C0140024881686C
:102F0000027811448160704708000020074810B51E
:102F1000016841F010010160032000F075F80F20F6
:102F200000F006F800F024F8002010BD0020024058
:102F300070B50D4D04464FF47A712878B1FBF0F06E
:102F40000A490968B1FBF0F000F0ECFA48B9102C1E
:102F500007D200222146501E00F036F800206C6097
:102F600070BD012070BD000008000020140000208A
:102F70000C4808B5816941F001018161816901F066
:102F800001010091C16941F08051C161C06900F047
:102F9000805000900448416821F0E06141F00071E8
:102FA000416008BD0010024000000140002809DB1C
:102FB00000F01F02012191404009800000F1E02053
:102FC000C0F8001170470000F0B40E4B1B680C46AF
:102FD000C3F30223C3F10705042D00D90425191DED
:102FE000072901D2002300E0DB1E012606FA05F1C5
:102FF000491E214099409E40761E16403143F0BC48
:1030000001F03BB90CED00E0064900F0070208684A
:103010004FF6FF03184040EA0220034A10430860BD
:10302000704700000CED00E00000FA052DE9F047C4
:103030000F46050061D0434E306800F00700B842EB
:1030400009D2306820F0070038433060306800F063
:103050000700B84251D128683B4C810712D5400780
:1030600003D5606840F4E06060602878000703D50D
:10307000606840F4605060606068A96820F0F0000B
:10308000084360602878C00728D06868012810D0FD
:103090002168022810D0890700292EDA616821F002
:1030A000030101436160FFF771FC804641F28839FA
:1030B0000DE021688903EFE78901EDE7FFF766FC82
:1030C000A0EB0801494502D90320BDE8F0876068FC
:1030D000696800F00C00B0EB810FEFD1306800F0B0
:1030E0000700B8420BD9306820F007003843306041
:1030F000306800F00700B84201D00120E5E72878E9
:10310000400705D56068E96820F4E0600843606026
:103110002878000706D56068296920F4605040EAE5
:10312000C100606000F038F86168084AC1F303111B
:10313000515CC8400649086006480068FFF7F8FE81
:103140000020C2E70020024000100240D8440008DE
:10315000140000200C00002004480549006849685C
:10316000044AC1F30221515CC8407047140000209A
:1031700000100240E8440008044805490068496816
:10318000044AC1F3C221515CC840704714000020BA
:1031900000100240E844000812A185B00FC98DE874
:1031A0000F0014A0144A006804905168134801F0FD
:1031B0000C03042B10D0082B0ED1C1F38343C90399
:1031C0001DF803000AD5516804AAC1F34041515CBF
:1031D0000A4A5043B0FBF1F005B070470849484334
:1031E000FAE7000002030405060708090A0B0C0DA4
:1031F0000E0F1010010200000010024000127A00B1
:1032000000093D002DE9F84F040070D02078C04D32
:10321000C00749D06868C0F38100012807D06868FA
:10322000C0F38100022809D16868C00306D5286868
:10323000800339D560680028E7D035E06068B0F5D4
:10324000803F0BD010B1B0F5A02F11D0286820F42A
:1032500080302860286820F4802002E0286840F44C
:1032600080302860606890B1FFF790FB06460AE066
:10327000286840F480202860F0E700BFFFF786FB55
:10328000801B642873D828688003F7D50CE0FFF70B
:103290007DFB064605E000BFFFF778FB801B642836
:1032A000F0D828688003F7D420789A4E80074FF032
:1032B00001094FF0000839D5686810F00C0F07D0ED
:1032C0006868C0F38100022809D16868C00306D489
:1032D0002868800714D52069012808D110E02069EA
:1032E000B0B1C6F80090FFF751FB074605E00AE1D0
:1032F000FFF74CFBC01B0228C4D828688007F7D50D
:103300002868616920F0F80040EAC10028600DE0FB
:10331000C6F80080FFF73AFB074604E0FFF736FBEC
:10332000C01B022823D828688007F7D4207800071C
:103330002CD57948A169D9B1C0F80090FFF726FBD8
:10334000074604E0FFF722FBC01B02280FD8686A7B
:103350008007F7D571484FF4FA510068B0FBF1F0DF
:10336000009000BF0098411E0091FAD20EE080E06C
:10337000C0F80080FFF70AFB074604E0FFF706FBF2
:10338000C01B022875D8686A8007F7D420784007E8
:1033900060D5E8690027C00008D4E86940F0805093
:1033A000E861E869012700F0805000905C480168FE
:1033B000C90513D40168834641F480710160FFF7A9
:1033C000E5FA824606E000BFFFF7E0FAA0EB0A004C
:1033D00064284ED8DBF80000C005F5D5E068012868
:1033E0000AD008B1052813D0286A20F0010028620D
:1033F000286A20F0040002E0286A40F001002862F8
:10340000E06841F2883B98B1FFF7C0FA82460BE0D2
:10341000286A40F004002862EEE700BFFFF7B6FA22
:10342000A0EB0A0159455AD8286A8007F6D50CE066
:10343000FFF7ACFA824605E0FFF7A8FAA0EB0A0115
:1034400059454CD8286A8007F6D41FB1E86920F0A6
:103450008050E861E06988B36968C1F3810102299D
:1034600044D00228C6F8608004D0FFF78FFA0446E3
:1034700038E034E0FFF78AFA074604E0FFF786FAFF
:10348000C01B02282BD828688001F7D4206AB0F529
:10349000803F05D16868A16820F400300843686067
:1034A000D4E908010843696821F47411084368608D
:1034B000C6F86090FFF76AFA044606E025E000BF10
:1034C000FFF764FA001B022809D828688001F7D5A5
:1034D0001BE000BFFFF75AFA001B022802D90320A5
:1034E000BDE8F88F28688001F4D40EE00128F7D0F9
:1034F0006868226A00F48031914204D1616A00F464
:103500007010884201D00120EAE70020E8E70000BF
:103510000010024000004242800442421400002099
:103520000070004010B5401EB0F1807F01D3012033
:1035300010BD4FF0E02460610F21601700F09DFE88
:103540000020A06107202061002010BD7047704757
:10355000F8B5026804461068D168536910F00F0F7F
:103560004FF0000553D003F0010601F49077374384
:103570005FD0C20705D0CA0503D5226C42F0010214
:103580002264420705D5DA0703D0226C42F002021A
:103590002264820705D5DA0703D0226C42F00402C8
:1035A0002264020707D501F02002324303D0226CC7
:1035B00042F008022264226C002A34D0800604D52E
:1035C000880602D5204600F037FD20684069216C4E
:1035D000C0F38010090700D430B3204600F014FD7A
:1035E0002068416949061BD5416921F040014161CC
:1035F000A06BA8B158494163A06BFFF779F8002888
:1036000011D0A06B416B01B0BDE8F04008478306C4
:103610000FD58B060DD52046BDE8F84000F00CBD57
:103620002046FFF794FFF8BD2046FFF790FF256482
:10363000F8BD266B2023012E52D1C60650D5CE06EA
:103640004ED5106850680090506940062AD5A16B8D
:10365000086840680004000CEAD0A68D8642E7D9CD
:10366000E0858869202818D0D06820F48070D06068
:103670002068416921F0010141612068416921F020
:103680004001416184F83E3025632068C16821F023
:103690001001C160A06BFFF707F8A08DE18D401A03
:1036A00081B219E0A08DE18D401A81B2E08D002831
:1036B000BED00029BCD0D06820F49070D0602068C3
:1036C000426922F00102426184F83E30256320689D
:1036D000C26822F01002C2602046FFF737FFF8BD33
:1036E00005062BD50D0629D594F83D002128F6D1E5
:1036F000A068B0F5805F01D12069B0B1206A411C9B
:103700002162216800784860E08C401E0004000CB3
:10371000E084E4D12068C16821F08001C1602068A4
:10372000C16841F04001C160F8BD206A0088C0F363
:1037300008005060206A801C2062E5E74006F3D54F
:103740004806F1D5D168204621F04001D16084F8C7
:103750003D3000F070F9F8BDF93F000870B5040085
:1037600004D094F83D00002510B106E0012070BDA2
:1037700084F83C50204600F023F8242084F83D00D3
:103780002068C16821F40051C160204600F0B0FCFF
:103790002068016921F4904101612068416921F0AC
:1037A0002A0141612068C16841F40051C16025646B
:1037B000202084F83D0084F83E00002070BD000009
:1037C00070B586B0002400940194029403942B4EAB
:1037D00003682B49022003222A4DB34229D18B6969
:1037E00043F480438B618B6903F4804304938B69BA
:1037F00043F004038B618969039201F00401049191
:103800000102CDE9001069462846FEF7CFFF2815D2
:10381000CDE90004694628460294FEF7C7FF00225E
:1038200011462520FFF7D0FB2520FFF7BFFB06B090
:1038300070BD154EB342FAD1CB6943F40033CB616E
:10384000CB6903F4003304938B6943F004038B6169
:103850008969039201F0040104910421CDE900106B
:1038600069462846FEF7A2FF0820CDE90004694614
:1038700028460294FEF79AFFD9E70000003801407D
:1038800000100240000801400044004090F83E3023
:10389000202B0ED159B152B190F83C30012B08D0F9
:1038A000012380F83C300023036300F07DBC01203D
:1038B00070470220704700002DE9F041064600687D
:1038C0002C49884253D12C4CA08801040DD4217876
:1038D00000250D2910D0C0F30D02284B401C80B2EA
:1038E0009954A080C72800D9A5803046BDE8F04192
:1038F00001222149FFF7CABF40F40040A080012205
:103900001D491F48FFF7C2FF2278242A00D1658095
:103910001A486188C8304254491C8FB267800178C8
:10392000242907D101794D2904D14079432801D1B7
:103930000A2A04D0C82FD8D3C8206080D5E7104801
:1039400050217C38FCF74DFE0C493A46C83101F154
:10395000C800FCF714FE0A4901207C3981F85000A8
:1039600006486580C821C830FCF73BFEBDE7BDE8CE
:10397000F0810000003801400000002078000020A5
:10398000840200202DE9F843044690F83D001F46CC
:1039900016460D4620284CD1C5B1BEB194F83C0066
:1039A000012846D0012084F83C004FF00008C4F8FC
:1039B0004080212084F83D00FEF7E8FFA684814680
:1039C000E684A068B0F5805F03D004E00120BDE884
:1039D000F883206928B12E465FF0000584F83C800A
:1039E0000EE00026FAE78021204600F0F8FBA0B99F
:1039F000AEB116F8010B21684860E08C401EE084EF
:103A0000E08C4B464FF0000200970028EBD14FF0BE
:103A10004001204600F0E3FB30B10320D7E735F842
:103A2000020BC0F30800E6E7202084F83D000020E8
:103A3000CDE70220CBE77047FEE701684A69D24331
:103A400052050FD46FF480624A61002140F8301FA4
:103A5000202242738173026942F004020261017301
:103A600001207047002070472DE9F84F0446006898
:103A700089460B9D01689846174641F480610160B4
:103A80002068016841F48071016000954FF0011BCE
:103A90000022594620460A9B00F0DEF84FF4007AD7
:103AA00040B120680068C00501D5C4F840A00320DB
:103AB000BDE8F88F216809F0FE0008612B4628490F
:103AC00020460A9A00F0FCF8F0BB20684169806942
:103AD00000902A4620460A9900F070F940B1206C07
:103AE00004283AD12068016841F40071016034E093
:103AF000FEB2B8F1010F09D02168380A08612A46E0
:103B000020460A9900F05AF90028E8D12068066199
:103B10002A4620460A9900F051F90028DFD1206892
:103B2000016841F4807101600095002259462046E9
:103B30000A9B00F091F80028B3D1216809F0FF003A
:103B400040F00100086100E007E02B4604492046F0
:103B50000A9A00F0B5F80028AAD00120A8E70000D2
:103B6000020001002DE9F843044600680D46DDE936
:103B7000089701689846164641F4807101604B46EB
:103B800000224FF001112046009700F065F848B17F
:103B900020680068C00502D54FF40070206403203F
:103BA000BDE8F883216805F0FE0008613B464A46FF
:103BB0001549204600F084F888B920684169806979
:103BC00000903A464946204600F0F8F848B1206C8B
:103BD000042804D12068016841F4007101600120CB
:103BE000DEE7F5B2B8F1010F09D02168300A0861AB
:103BF0003A464946204600F0E1F80028E7D120681F
:103C000005610020CCE700000200010070B51646F7
:103C10000D4604460DE02046FFF70FFF08B10120D6
:103C200070BD681C05D0FEF7B1FE801BA84207D806
:103C300035B120684069C0434007ECD4002070BD16
:103C4000002044F8300F20216173A073216941F0F6
:103C5000200121612073E2E72DE9F0471E469046DE
:103C60000D460446C1F30747DDF8209008E0701CBC
:103C700006D0FEF78BFEA0EB0900B0420FD876B15C
:103C80002068012F18D0806925EA00000004000C8C
:103C900014D000214145EAD00020BDE8F087002083
:103CA00044F8300F20216173A073216941F0200195
:103CB000216120730120F0E74069E5E70121E9E790
:103CC0002DE9F0479A4691460E46044600254FF0EE
:103CD0002008C1F3074725E020684069C04340053C
:103CE00014D42068016841F40071016021686FF408
:103CF00080604861256384F83D8084F83E50206CE4
:103D000040F00400206484F83C501FE0B9F1FF3F0C
:103D100008D0FEF73BFEA0EB0A0149450CD8B9F1EB
:103D2000000F09D02068012F13D0806926EA000017
:103D30000004000C0BD0CFE744F8305F84F80D800E
:103D4000A573206940F02000206125730120BDE8A3
:103D5000F0874069EAE72DE9F041002590460E46DC
:103D60000446202717E04069C043C0060CD454F82D
:103D7000301B6FF01000486144F810596777A57741
:103D8000206A2062257717E0FEF700FEA0EB08000E
:103D9000B04208D83EB120684169C9434906E2D41F
:103DA0000020BDE8F08144F8305F6773A573206997
:103DB00040F02000206125730120F2E770B516461F
:103DC0000D4604460DE02046FFF737FE08B10120FE
:103DD00070BD681C05D0FEF7D9FD801BA84207D82E
:103DE00035B120684069C0430006ECD4002070BDA6
:103DF000002044F8300F20216173A073216941F045
:103E0000200121612073E2E7F0B585B0012504A807
:103E1000CDE900054FF47A742B467522D021029427
:103E20001B48FEF77DFE9DF8100068282ED1002764
:103E300003AE8DF80C700096CDE9015401236B227E
:103E4000D0211348FEF794FF07208DF80C00009650
:103E5000CDE9015401231922D0210D48FEF788FF36
:103E60008DF80C700096CDE9015401231C22D0215D
:103E70000748FEF77DFF8DF80C700096CDE90154E0
:103E800001231B22D0210248FEF772FF05B0F0BDCE
:103E9000240000200D4808B5816941F020018161AE
:103EA000816901F020010091816941F00401816183
:103EB000816901F004010091816941F0080181618B
:103EC000806900F00800009008BD0000001002406A
:103ED0000D4810B50B4901600C49416000214FF4B9
:103EE00080428160C0E9031241618161C161016268
:103EF000FEF752FD002803D0BDE81040FEF7D2BB0C
:103F000010BD00000054004024000020A0860100E5
:103F10000E4810B50C4901604FF416514160002164
:103F200081600C22C160C0E904128161C161FFF7A8
:103F300015FC08B1FEF7B6FBBDE8104001220449AC
:103F40000248FFF7A3BC00000038014084020020B3
:103F5000780000200C4810B50A4901604FF4E131A7
:103F60004160002181600C22C160C0E904128161BE
:103F7000C161FFF7F3FB002803D0BDE81040FEF756
:103F800091BB10BD00440040C8020020FEE7FEE7E0
:103F900070477047FEF7B2BF30B58FB02821684632
:103FA000FCF71FFB14210AA8FCF71BFB01210804E6
:103FB000CDE900100024029402250491CDE90750B8
:103FC0004FF4E01009906846FFF71CF908B172B68B
:103FD000FEE70F20CDE90A054FF48060CDE90C40E3
:103FE00002210AA80E94FFF721F8002801D072B62A
:103FF000FEE70FB030BD704710B5406A0021C185A3
:10400000C184FFF7A4FA10BD0168CA6822F4907257
:10401000CA6001684A6922F001024A61016B012904
:1040200004D10168CA6822F01002CA60202180F819
:104030003E1000210163704708B590F83E10222918
:1040400001D0022008BD82684FF480539A4201D10A
:10405000016921B1816A9A421BD04AB10AE0026823
:10406000816A5268C2F308020A80816A891C08E0EA
:10407000026972B10268526802F07F020A70816AB6
:10408000491C8162C18D491E0904090CC18503D0F8
:1040900019E002685268F1E70168CA6822F020025C
:1040A000CA600168CA6822F48072CA6001684A69FD
:1040B00022F001024A61202180F83E10016B0129A3
:1040C00003D0FFF7F9FB002008BD00210163016860
:1040D000CA6822F01002CA6001680A68D20602D5D6
:1040E0000A6849680091818DFFF730FAEBE700001C
:1040F00070B5044600680169E26821F4405111433B
:1041000001612169A0680843616908432168CA68A0
:1041100041F20C639A430243CA6020684169A26974
:1041200021F44071114341611E492068884202D147
:10413000FFF722F801E0FFF70FF800EBC00101EBF9
:104140000012606864218000B2FBF0F3B3FBF1F36E
:104150006FF018067343B2FBF0F5B2FBF0F605EB17
:104160008305322303EB0515B5FBF1F5B6FBF1F63C
:1041700005F0F00505EB0615B2FBF0F6B2FBF0F02A
:10418000B0FBF1F06FF01802504306EB800003EB38
:104190000010B0FBF1F0216800F00F0028448860A7
:1041A00070BD00000038014081628285C285002117
:1041B0000164222280F83E2080F83C100168CA6821
:1041C00042F48072CA6001684A6942F001024A61A1
:1041D0000068C16841F02001C160002070472DE9EE
:1041E000F041984617460E460446069D1DE0681CA1
:1041F0001BD02DB1FEF7CAFBA0EB0800A84214D9D2
:104200002068C16821F4D071C1602068416921F043
:1042100001014161202084F83D0084F83E00002027
:1042200084F83C000320BDE8F0812068006836EA8D
:10423000000004D00020B842D9D00020F3E70120CC
:10424000F9E700000148FFF783B90000840200206D
:10425000FEE7490050EAC12018BF04204A0D18BFEC
:1042600040F0010040F2FF72B2EB515F08BF40F036
:104270000200012808BF052070470907090E002821
:1042800004DB00F1E02080F80014704700F00F001C
:1042900000F1E02080F8141D704730380A2801D260
:1042A00001207047002070470446214601A0FCF71A
:1042B00003F8FAE74552524F5225640D0A000000F8
:1042C0008A68002A01DCFDF7E1B9521E8A604A685B
:1042D000C0B2531C4B60107070470000FEF716FE12
:1042E000FFF75AFEFFF7D6FDFFF7F2FDFFF732FEAC
:1042F000FFF70EFEFFF788FD00F01AF8074C4FF4A9
:10430000FA6604F15D056A342A46214604A000F0ED
:1043100095F83046FEF738FAF6E70000080200206C
:10432000BEADB6C83A25730ACEB3B6C825730A0027
:104330002DE9FE4339A23CA607CA58CE3D4F8DE871
:104340005800C7F86A00C7F86E10C7F872200098C6
:10435000C7F85D000198C7F86100BDF80800A7F82C
:1043600065009DF80A0087F8670097F8500000255F
:1043700000284ED0A84687F850804FF001090FE082
:1043800075B1461C2CA13046FCF7A2F8040042D0BF
:10439000072D16D2DFE805F0150B1020252A2F0077
:1043A00025A12448FCF794F860BB012034E02148A3
:1043B000A21B3146523002E0A21B31466846FCF790
:1043C00099F887F851909DF8002020464946412AE7
:1043D00016D0562A19D116E01648A21B31465D3078
:1043E000EDE71448A21B31466830E8E71148A21BEC
:1043F00031466A30E3E70F48A21B31467630DEE7EC
:1044000087F8781001E087F878806D1CEDB2062DF2
:10441000B6D9BDE8FE830220FFF746FF3131372EC3
:10442000323038303932373533392E303931313056
:1044300032360000080200202C0000000FB4642176
:1044400000B599B06846FCF7CCF81BAB6421684610
:104450001A9AFBF717FF82B24FF0FF3369460548FF
:10446000FFF790FA64216846FCF7BBF819B05DF8D5
:1044700014FB0000C802002010B500290AD00878FB
:10448000002807D005487844FDF76AFC002801D0D1
:10449000002010BD0248784410BD000096010000C5
:1044A0008E01000010B500290AD00878002807D036
:1044B00005487844FDF754FC002801D0002010BDC9
:1044C0000248784410BD0000860100007E01000013
:1044D000FCF7F8BBFCF72CBD00000000000000005A
:1044E000010203040607080900000000010203049A
:1044F00004000008000000000000000200010000AD
:1045000010000000000000000000000030313233D5
:1045100034353637383941424344454640305800F7
:104520003031323334353637383961626364656629
:1045300040307800303132333435363738396162C3
:10454000636465667870003031323334353637381D
:10455000394142434445465850003A7474003A7415
:1045600074003A747400000002400000000000A0D3
:104570000000000005400000000000C8000000002E
:104580000C4000000000409C0000000019400000AA
:104590000020BCBE0000000034400000BFC91B8EDC
:1045A00000000004B5400000504BCFD06607E2CFBA
:1045B000010000006C4100003E8251AADFEEA734EA
:1045C00001000000D9420000DCB5A0E23A301F979C
:1045D000FFFFFFFFB4450000FD25A0C8E9A3C14FC0
:1045E000FFFFFFFFFF3F0000000000800000000011
:1045F000FF3F000000000080000000004847000866
:104600000000002024000000280100086C4700087A
:1046100024000020440A0000440100081C0000009F
:1046200043000000F8FFFFFF0C0000000E00000038
:104630000F0000002E0000001001000043000000E9
:10464000F8FFFFFF004040404040404040404141B3
:104650004141414040404040404040404040404057
:1046600040404040400502020202020202020202F1
:1046700002020202022020202020202020202002EE
:10468000020202020202909090909090101010107E
:10469000101010101010101010101010101010101A
:1046A00002020202020288888888888808080808AE
:1046B000080808080808080808080808080808087A
:1046C00002020202400000000000000000000000A2
:1046D00000000000000000000000000000000000DA
:1046E00000000000000000000000000000000000CA
:1046F00000000000000000000000000000000000BA
:1047000000000000000000000000000000000000A9
:104710000000000000000000000000000000000099
:104720000000000000000000000000000000000089
:104730000000000000000000000000000000000079
:104740000000000000000000000000000000000069
:104750000100000010000000000000000024F40030
:0C4760000000000000000000000000004D
:04000005080000ED02
:00000001FF
