:020000040800F2
:10000000100C0020950A0008D9030008DB03000843
:10001000DF030008E3030008E70300080000000016
:10002000000000000000000000000000EB030008DA
:10003000ED03000800000000EF030008F1030008D2
:10004000AF0A0008AF0A0008AF0A0008F30300086F
:10005000AF0A0008AF0A0008AF0A0008AF0A00089C
:10006000AF0A0008AF0A0008AF0A0008AF0A00088C
:10007000AF0A0008AF0A0008AF0A0008AF0A00087C
:10008000AF0A0008AF0A0008AF0A0008AF0A00086C
:10009000AF0A0008AF0A0008AF0A0008AF0A00085C
:1000A000AF0A0008AF0A0008AF0A0008AF0A00084C
:1000B000AF0A000845060008AF0A0008AF0A0008AA
:1000C000AF0A0008AF0A0008AF0A0008AF0A00082C
:1000D000AF0A00080B0A0008AF0A0008D1060008A2
:1000E000AF0A0008AF0A0008AF0A0008AF0A00080C
:1000F000AF0A0008AF0A0008AF0A0008AF0A0008FC
:10010000AF0A0008AF0A0008AF0A0008AF0A0008EB
:10011000AF0A0008AF0A0008AF0A0008AF0A0008DB
:10012000AF0A0008AF0A0008AF0A0008AF0A0008CB
:1001300000F002F800F090F80AA090E8000C824469
:100140008344AAF10107DA4501D100F085F8AFF246
:10015000090EBAE80F0013F0010F18BFFB1A43F0A5
:1001600001031847142B0000342B0000103A24BF61
:1001700078C878C1FAD8520724BF30C830C144BF0C
:1001800004680C607047000000230024002500264E
:10019000103A28BF78C1FBD8520728BF30C148BFEA
:1001A0000B6070476E2901F0B083702901F01B8548
:1001B000662902F0F384652902F0F084672902F0D1
:1001C000ED846129AFF3008003681B0A28BF41F06A
:1001D0008001692901F0D281642901F0CF8175295C
:1001E00001F0CC816F2901F0A884782901F0E7841F
:1001F000E92901F04384E42901F04084F52901F064
:100200003D84EF2901F0A584F82901F0E684036814
:10021000DB0928BF41F08001632901F0B283732913
:1002200001F0B783E32901F04787F32901F04C87F8
:10023000002070471FB501F09DFF04000020002141
:1002400002F096FC401C60600020002102F07AFC65
:10025000E0601FBD10B510BD01F05EFF1146FFF755
:10026000E9FF00F06BF802F03BF803B4FFF7F2FF90
:1002700003BC00F06FFB000010B50121080700F07F
:10028000B8FD0121C80600F0B4FD012001F026F9F7
:1002900001F002F9012000F01DFD00BF412000F037
:1002A000FDFC0028FAD04FF4807000F02CFD0120F6
:1002B00000F02FFD01F0C3F801F0B8F80121084665
:1002C00001F070F801F0B2F847F6FF7001F0A0F805
:1002D00001F0ACF810BD10B50121080700F089FD50
:1002E000012001F0FBF801F0A1F80121022001F04A
:1002F00059F801F09BF8042001F0E1F84AF2A55109
:1003000088420ED0FFF7B8FF01F090F8002001F00E
:1003100072F801F08BF84AF2A551042001F0C4F8FC
:1003200009E001F08CF801F081F80121084601F0A4
:1003300039F801F07BF800F087FD10BD00BF002404
:1003400000250026002700F0BFFA4FF4A06000F05F
:10035000C1FB4FF4E13000F00CFB00F085FAFFF731
:10036000BAFF4FF4E13000F0E2F925E013480078DD
:10037000012815D100201149087001F033F8044616
:100380004FF46160B4FBF0F5B4FBF0F100FB1140F9
:100390003C21B0FBF1F63C20B4FBF0F100FB11472F
:1003A0003B463246294606A000F02EFA3B4632462E
:1003B000294603A001F0ACF8D8E700002200002095
:1003C00074696D652025302E32643A25302E3264F2
:1003D0003A25302E32640000704700BFFEE700BFB0
:1003E000FEE700BFFEE700BFFEE7704770477047BB
:1003F000704710B5012001F034F828B1012001F058
:1004000040F801200B490870022001F02AF880B161
:10041000022001F036F801F009F8322206A107A007
:1004200000F0D4F809A000F0EFF902210B4800F029
:1004300032FC10BD220000200000000041542B437C
:10044000495053454E443D313200000074696D659A
:10045000206F76657221212100000000000C014010
:100460000CB50020019000904848006840F48030AE
:100470004649086000BF4548006800F4003000901D
:100480000198401C0190009818B90198B0F5A06F30
:10049000F1D13E48006800F4003010B10120009016
:1004A00001E0002000900098012843D138480068FE
:1004B00040F01000364908600846006820F003004C
:1004C00008600846006840F0020008602F48406855
:1004D0002E4948600846406848600846406840F435
:1004E000806048600846406820F47C1048600846F8
:1004F000406840F4E81048600846006840F08070AA
:10050000086000BF2148006800F000700028F9D0A2
:100510001E48406820F003001C49486008464068B7
:1005200040F00200486000BF1848406800F00C002E
:100530000828F9D10CBD10B5FFF792FF10BD10B51A
:100540001248006840F00100104908600846406801
:10055000104908400D494860084600680E490840A7
:100560000A4908600846006820F4802008600846B0
:10057000406820F4FE0048604FF41F008860FFF7D9
:10058000DAFF4FF000600549086010BD001002401E
:10059000002002400000FFF8FFFFF6FE08ED00E03B
:1005A00070B5044600252048008800F4004058B18A
:1005B00000201D490988C1F30E011C4A50542146F0
:1005C000104601F0DBF80546284670BD2DE9F041E4
:1005D00006460D4614460027002013490880314680
:1005E00013A000F011F9E5B1DCB113E00A2000F02E
:1005F00084F90D48008800F4004058B12846FFF700
:10060000CFFF20B129460CA000F082FF06E00020B9
:1006100005490880601E80B2041EE7D100BF04B9FE
:1006200001273846BDE8F081140000203800002082
:1006300025730D0A0000000061636B3A25730D0AF3
:100640000000000010B501211F4800F082FE68B1D3
:100650001E48008840F400401C49088001211A48C7
:1006600000F088FE0021184800F05CFE10BD7FB548
:1006700005460C460121022000F0BBFBADF80450FA
:10068000ADF800400020ADF80600ADF80200694664
:100690000D4800F015FD012211460B4800F04EFEFA
:1006A0000121094800F03EFE1D208DF80C000020BD
:1006B0008DF80D0002208DF80E0001208DF80F003E
:1006C00003A800F00CFA7FBD0004004014000020D5
:1006D00010B540F225515E4800F0BDFCF8B15C4811
:1006E00000F0A7FCC4B25B48008800F40040B0B939
:1006F00058480088B0F5167F12DA0021564800F0FD
:1007000026FE5448008818B90121534800F00AFE1B
:1007100050490888411C4F4A118050490C5405E04B
:100720004C48008840F400404A49088010BD10B58C
:1007300086B004460121082000F04EFB0121880408
:1007400000F057FB424800F093FB4FF48060ADF897
:10075000100003208DF8120018208DF8130004A952
:100760003F4800F00BFA4FF40060ADF81000042091
:100770008DF8130004A93A4800F000FA0094002014
:10078000ADF80400ADF80600ADF80800ADF80C00B7
:100790000C20ADF80A0069462D4800F0ACFB0121A1
:1007A0002B4800F011FC012240F22551284800F0AE
:1007B00017FC27208DF8140002208DF81500012069
:1007C0008DF816008DF8170005A800F088F90320B1
:1007D0008DF8140002208DF815008DF81600012008
:1007E0008DF8170005A800F07AF941F61F4140F294
:1007F000E730FFF73CFF002016490880002116482B
:1008000000F090FD06B010BD0FB438B505A80090FB
:100810001448009A049900F069FE002000901148E5
:1008200000F0BEFF85B200240DE000BF4021084863
:1008300000F004FC0028F9D00A48015D044800F0EB
:10084000F4FB601C84B2AC42EFDB38BC5DF814FBF7
:100850000048004014000020000400403800002040
:10086000000C01409002002008B50121102000F08A
:10087000B3FA0121082000F0AFFA10208DF8030030
:100880004FF46040ADF8000003208DF80200694687
:100890000B4800F073F94FF40051094800F0F9F9E2
:1008A00040F2EA30ADF8000003208DF8020010207D
:1008B0008DF803006946034800F060F908BD0000A8
:1008C00000100140000C014010B56FF0040000F072
:1008D00038F91C4800681C49B0FBF1F01B4908704E
:1008E0000846007800EB4001C1EBC0104FF6FF71E5
:1008F00001EAC0001649088010BD0146144A12885A
:100900004A434FF0E0235A6100229A611A46126965
:1009100042F001021A6100BF4FF0E022106900F0BE
:1009200001021AB100F48032002AF5D04FF0E02223
:10093000126922F001024FF0E0231A6100229A614D
:10094000704700000000002000127A00160000200E
:1009500018000020014600BF704700BF494A1288B6
:1009600002F04002002AF9D0C2B2464B1B1D1A8089
:10097000704710B586B00446012144F2040000F02F
:100980002BFA4FF40070ADF8140003208DF8160018
:1009900018208DF8170005A93B4800F0EFF84FF438
:1009A0008060ADF8140004208DF8170005A93648C2
:1009B00000F0E4F825208DF8000003208DF80100F8
:1009C0008DF8020001208DF80300684600F087F8DA
:1009D00001940020ADF80800ADF80A00ADF80C0055
:1009E000ADF810000C20ADF80E0001A9254800F06C
:1009F00082FA012240F22551224800F0F1FA012149
:100A0000204800F0E1FA06B010BD10B540F22551C3
:100A10001C4800F020FB10B31A4800F00AFBC4B2D7
:100A20001A48008800F40040C8B91848008800F44B
:100A3000804060B10A2C03D000201449088020E0D7
:100A40001248008840F400401049088019E00D2C3D
:100A500006D10E48008840F480400C49088010E020
:100A60000A480088C0F30D0009490C540748008863
:100A7000401C0649088008460088C72801DD002080
:100A8000088010BD0038014000080140200000200F
:100A9000E80400200948804709480047FEE7FEE7D0
:100AA000FEE7FEE7FEE7FEE7FEE7FEE7FEE7FEE71E
:100AB00004480549054A064B704700003F050008F9
:100AC0003101000810060020100C00201008002042
:100AD0001008002025490143254A1160704770B570
:100AE000002100230F22C47804B3214C246804F4AD
:100AF000E064C4F5E064210AC1F10403CA4044780B
:100B000004FA03F18478144021430901194C067852
:100B1000A155047804F01F050124AC4005786D113F
:100B2000AD0005F1E025C5F8004109E0047804F0C6
:100B30001F050124AC40104D0678761145F826407B
:100B400070BD042808D14FF0E021096941F004018B
:100B50004FF0E022116107E04FF0E021096921F038
:100B600004014FF0E0221161704700000000FA0517
:100B70000CED00E000E400E080E100E02DE9F04150
:100B8000024600250026002000230024002791F8BB
:100B900003C00CF00F0591F803C00CF0100CBCF171
:100BA000000F03D091F802C04CEA050591F800C08F
:100BB000BCF1000F31D0146800202BE04FF0010C85
:100BC0000CFA00F3B1F800C00CEA03069E4220D1F3
:100BD00083004FF00F0C0CFA03F7BC4305FA03FC3B
:100BE0004CEA040491F803C0BCF1280F06D14FF081
:100BF000010C0CFA00FCC2F814C00AE091F803C022
:100C0000BCF1480F05D14FF0010C0CFA00FCC2F802
:100C100010C0401C0828D1D31460B1F800C0BCF14A
:100C2000FF0F34DD546800202EE000F1080C4FF077
:100C3000010808FA0CF3B1F800C00CEA03069E4262
:100C400021D183004FF00F0C0CFA03F7BC4305FAD7
:100C500003FC4CEA040491F803C0BCF1280F05D151
:100C600000F1080C08FA0CF8C2F8148091F803C0DF
:100C7000BCF1480F07D100F1080C4FF0010808FA49
:100C80000CF8C2F81080401C0828CED35460BDE890
:100C9000F0810161704741617047000010B5014665
:100CA0000022002300204A11012A02D16A4C236845
:100CB00006E0022A02D1684C236A01E0664C636AAE
:100CC00001F01F02012494401C400CB1012000E0FF
:100CD000002010BD0021604A203211705E4A82F867
:100CE0002010012802D004280AD104E001215A4A28
:100CF0002032117005E00521574A2032117000E0C2
:100D000000BF00BF70475449096A0143524A11624B
:100D1000704752490860704730B500210022002416
:100D200000234D4D6D6805F00C0121B1042905D05B
:100D3000082923D105E04A4D056022E0484D0560B1
:100D40001FE0454D6D6805F47012434D6D6805F464
:100D50008034022505EB92421CB9424D5543056093
:100D60000BE03D4D6D6805F400351DB13D4D55431B
:100D7000056002E03A4D5543056002E0384D0560DC
:100D800000BF00BF344D6D6805F0F0010909364D14
:100D90006B5C0568DD4045602F4D6D6805F4E061D2
:100DA000090A314D6B5C4568DD4085602A4D6D68F0
:100DB00005F46051C90A2C4D6B5C4568DD40C56087
:100DC000254D6D6805F44041890B284D6B5CC56865
:100DD000B5FBF3F5056130BD29B11F4A92690243A5
:100DE0001D4B9A6104E01C4A926982431A4B9A6136
:100DF000704729B1184AD2690243174BDA6104E0FF
:100E0000154AD2698243144BDA61704729B1124AFC
:100E1000D2680243104BDA6004E00F4AD268824382
:100E20000D4BDA60704729B10B4A126902430A4B35
:100E30001A6104E0084A12698243074B1A6170473D
:100E40000649091D086070470348406A40F08070F9
:100E50000149486270470000001002403C044242D1
:100E600000127A0000093D0023000020330000201A
:100E700010B504468D48844209D101218803FFF74B
:100E8000C5FF00214FF48040FFF7C0FF32E08848E3
:100E9000844209D101214804FFF7C5FF00214FF426
:100EA0000030FFF7C0FF25E08248844209D10121CC
:100EB0008804FFF7B8FF00214FF48020FFF7B3FF4D
:100EC00018E07D48844209D10121C804FFF7ABFF37
:100ED00000214FF40020FFF7A6FF0BE07748844283
:100EE00008D101210805FFF79EFF00214FF4801073
:100EF000FFF799FF10BD2DE9F04786B005460E4675
:100F00000024A24600BFA1460027B08900B100BF5F
:100F10002F462C8A4CF6FF700440F08804432C8244
:100F2000AC894EF6F3100440B088318908437189CA
:100F300008430443AC81AC8A4FF6FF400440B089BB
:100F40000443AC8201A8FFF7E7FE5848874202D16C
:100F5000DDF810A001E0DDF80CA0A88900F4004045
:100F600040B10AEBCA0000EB0A1031684900B0FB3F
:100F7000F1F807E00AEBCA0000EB0A1031688900BB
:100F8000B0FBF1F86420B8FBF0F004012009642103
:100F900001FB1089A88900F4004040B1322000EB29
:100FA000C900B0FBF1F000F00700044308E0322074
:100FB00000EB09106421B0FBF1F000F00F000443D6
:100FC0002C8106B0BDE8F08721B1828942F400523D
:100FD000828104E082894DF6FF731A408281704756
:100FE000F0B50346002400260025002040F66A17CD
:100FF000B94200D100BF1846C1F3421401F01F06E8
:10100000012707FA06F5012C01D10C3004E0022C6F
:1010100001D1103000E014301AB107682F43076087
:1010200002E00768AF430760F0BDC1F308028280A9
:10103000704701468888C0F30800704702460020C8
:10104000B1F5007F00D100BF13880B400BB1012028
:1010500000E00020704770B5024600240023002500
:10106000002040F66A16B14200D100BFC1F342151C
:1010700001F01F03012606FA03F3012D02D1968920
:10108000334006E0022D02D1168A334001E0968AF1
:1010900033400C12012606FA04F41688344013B1CA
:1010A0000CB1012000E0002070BD000000380140BC
:1010B0000044004000480040004C00400050004008
:1010C00000220288AD4B98420ED0AD4B98420BD017
:1010D000B0F1804F08D0AB4B984205D0AA4B984254
:1010E00002D0AA4B984204D14FF68F731A404B8816
:1010F0001A43A74B984207D0A64B984204D04FF60C
:10110000FF431A40CB881A4302808B8883850B8863
:1011100003859A4B98420BD0994B984208D09E4B2E
:10112000984205D09D4B984202D09D4B984201D1E8
:101130000B7A0386012383827047F0B50C4615466F
:10114000002200210026078C4EF6FF7C07EA0C07E0
:101150000784828B018C4FF6FF7707EA043640F64E
:10116000FF473A404FF6FF7707EA05273A434FF625
:10117000FF7707EA03373A43804FB8420ED0804FDB
:10118000B8420BD0B0F1804F08D07E4FB84205D0A6
:101190007D4FB84202D07D4FB84206D14DF6FF7761
:1011A000394046F48057394305E047F6FF57394048
:1011B00044F48057394382830184F0BDF0B50C4676
:1011C0001546002200210026078C4FF6FF6C07EA27
:1011D0000C070784828B018C4FF6FF7707EA042601
:1011E0004FF60C773A404FF6FF7707EA03172F4385
:1011F0003A43624FB8420ED0614FB8420BD0B0F1C3
:10120000804F08D05F4FB84205D05F4FB84202D040
:101210005E4FB84206D14FF6FF57394046F480770B
:10122000394305E04FF2FF57394044F480773943A2
:1012300082830184F0BDF0B50C46154600220021E2
:101240000026078C4FF6EF7C07EA0C070784028B19
:10125000018C4FF6FF7707EA041640F6FF473A4045
:101260004FF6FF7707EA03373A434FF6FF7707EA6F
:1012700005273A43414FB8420ED0414FB8420BD0F8
:10128000B0F1804F08D03F4FB84205D03E4FB84232
:1012900002D03E4FB84206D14FF6DF77394046F0D4
:1012A0001007394305E04FF65F77394044F01007E7
:1012B000394302830184F0BDF0B50C461546002287
:1012C0000021068C4FF6FE773E400684028B018C8F
:1012D0004FF60C7632407E1C06EA03162E4332434C
:1012E000264EB0420ED0264EB0420BD0B0F1804F09
:1012F00008D0244EB04205D0234EB04202D0234E37
:10130000B04206D14FF6FD76314044F0010631433C
:1013100005E04FF6F576314044F001063143028393
:101320000184F0BD21B1028842F00102028004E094
:1013300002884FF6FE731A40028070471AB1838903
:101340000B43838102E083898B43838170478184CF
:10135000704730B50246002000230024158A05EAB4
:101360000103958905EA010413B10CB1012000E0E5
:10137000002030BDCA43028270470000002C0140AB
:10138000003401400004004000080040000C004010
:1013900000100040001400400040014000440140A3
:1013A0000048014029B13B4A12880243394B1A8058
:1013B00004E0384A12888243364B1A807047354819
:1013C000001D008840F010003249091D0880704758
:1013D0003048001D00884FF6EF7108402D49091D67
:1013E0000880704700212B481C300188001F0088AE
:1013F00041EA0040704700B50246FFF7E0FF100CDD
:10140000244918310880091D0A80FFF7E1FF00BD5B
:1014100000B50246FFF7D3FFC2F303401D49083170
:101420000880091D0A80FFF7D3FF00BD00BF1948DF
:10143000001D008800F020000028F8D070471548F3
:10144000001D00884FF6F77108401249091D0880F9
:1014500000BF1048001D008800F008000028F8D0E8
:101460007047014600200B4A121D12880A40D0B274
:10147000084A12880A4012B108B1012000E0002099
:1014800070470449091D09888143024A121D1180D1
:10149000704700000028004010B50120FFF7D0FC85
:1014A0000020FFF7CDFC10BD08B5002200920A4ACB
:1014B0000092009A02440092009A116008BD08B59B
:1014C00001460020009004480090009808440090D5
:1014D0000098008808BD0000006C004001490862C7
:1014E0007047000000000E42704700001CB50C461B
:1014F000064B7B4469460090204600F020FA0446E3
:101500000020694600F02EFA20461CBD6F04000042
:101510000FB4044910B503AA029800F03FFA10BCBA
:101520005DF814FB1C00002070B50C460546012A2E
:1015300005D02878800600D5EA69002302E001235F
:1015400005E05B1C934202D2E05C0028F9D1A86957
:10155000E618C01AA861286A18442862284600F0D4
:1015600042F904E0D5E9012114F8010B9047B44297
:10157000F8D3284600F04DF970BD00002DE9F04188
:101580000646002410687529314616A510D000F0D3
:1015900051F9002802DA404213A507E031688A07B2
:1015A00001D512A502E0490704D511A5012401E0E7
:1015B00000F049F900210A2206F1240709E0B0FBF6
:1015C000F2FCB0FBF2F302FB1C00303078541846FA
:1015D000491C0028F3D123462A463046BDE8F04195
:1015E00000F03AB9000000002D0000002B000000C0
:1015F000200000002DE9F05F894604464FF0000A04
:10160000DFF874B1FB44C0F820A02046E1688847A9
:10161000002874D0252806D0D4E901219047206AFB
:10162000401C2062F1E700265F462046E1688847BB
:101630002028054607DB312D05D2781910F8200C3B
:1016400008B10643F1E7B00701D526F00406C4F857
:101650001CA00027C4F818A02A2D09D0284601F0A4
:1016600069FA38B304EB8708303DC8F8185019E020
:1016700059F8041B204604EB87029161E168884712
:10168000012F054618D1E069002820DA26F020064F
:101690001DE0D8F8180000EB800005EB4000303862
:1016A000C8F818002046E1688847054601F042FA6C
:1016B0000028EED1012F0AD02E2D08D12046E16856
:1016C00088477F1C0546022F46F02006C4DBA06930
:1016D000002803DA404246F00106A061F00701D07D
:1016E00026F010066C2D0BD0682D09D04C2D39D06A
:1016F0006A2D35D0742D35D07A2D33D016E038E0F0
:10170000E1682F4620468847B842054609D16C2F2C
:1017100026D04FF48060E16806432046884705469E
:1017200004E06C2F1AD04FF4807006430DB3A5F17E
:101730004100192802D8203546F400664A46294659
:10174000204626604E46FEF72DFD80B101280BD0C5
:10175000F61D26F0070000F1080956E74020E4E7EF
:101760008020D8E70020D6E706F104094DE7284697
:1017700052E7206ABDE8F09F9815000030B5054695
:101780000B462A4613F8014B12F8010B08B1A04290
:10179000F8D01CB1002802D06D1CF1E7284630BDFE
:1017A00010B5431C02E010F8011B71B18107FAD19A
:1017B0004FF0013202C88C1A8C4314EAC211F9D0DE
:1017C000C01A0A0603D0C01E10BDC01A10BD0A04FC
:1017D00001D0801E10BD0902FCD0401E10BD704714
:1017E00070477047704770B5044685690068C10648
:1017F00001D5302600E02026C00707D070BDD4E90F
:10180000012130469047206A401C20626D1EF6D5AB
:1018100070BD70B5044685690078C00707D170BDFA
:10182000D4E9012120209047206A401C20626D1ECF
:10183000F6D570BD09684A0501D540B27047C905A3
:10184000FCD500B2704709684A0501D5C0B270479F
:10185000C905FCD580B270472DE9F0470D46994681
:101860009246044600F124080168880604D5E06920
:1018700021F01001216000E00120A84201DD471B9A
:1018800000E00027A1697A1902EB0900081AA0619B
:101890002078C00602D42046FFF7A5FF002608E006
:1018A000D4E901211AF806009047206A401C761CF2
:1018B00020624E45F4DB2078C0060AD52046FFF7AB
:1018C00092FF06E0D4E9012130209047206A401CB5
:1018D0002062381EA7F10107F4DC07E0D4E90121FA
:1018E00018F805009047206A401C2062281EA5F1C8
:1018F0000105F3DC2046FFF78CFF2078000602D5B7
:101900000220BDE8F0870120FBE711680268006A49
:10191000530501D508700AE0D30501D5088006E01B
:10192000130603D5C217C1E9000200E008600120D8
:101930007047000001694A1C02610878704700B5D1
:101940008FB0CDE901310021059105497944CDE9F8
:10195000031011466846FFF74DFE0FB000BD0000B2
:10196000E5FFFFFF0A6802F8010B0A60704710B537
:10197000436913B1AFF3008001E0FFF7D5FD01200B
:1019800010BD127800F124010A7000224A70012271
:10199000EDE711684FF0FF32E9E70000074B70B543
:1019A0000D467B44FFF7CBFF0446284600F090FB32
:1019B00010B14FF0FF3070BD204670BDB5EFFFFF96
:1019C0002DE9FF5F15468A460446DFF8AC80F844EF
:1019D0000027D8E900103E46CDE9001010E03AF8A3
:1019E00016106A4602A800F077FB411C07D0217848
:1019F000890603D5E269391891420DD80744761C4F
:101A00002078800602D5E069B84205DDAE42E6DB0B
:101A10003AF816000028E2D1A069C01BA061204658
:101A2000FFF7E1FED8E90010CDE90010002017E033
:101A30003AF818106A4602A800F04EFBB0F1FF3FDA
:101A400081460BD000250DF1080B05E0D4E90121FA
:101A50001BF8050090476D1C4D45F7D308F10100B8
:101A6000B0428046E4DB206A384420622046FFF71B
:101A7000D0FEBDE8FF9F0000E21100002DE9F0411B
:101A80008046D21D22F007020025D2E90002F52986
:101A900015A614D0011E72F1000106DA0023D0EB66
:101AA000030063EB020211A608E0D8F800108B07D0
:101AB00001D50FA602E0490701D50EA60125114662
:101AC000002408F1240704E000F098F830323A5579
:101AD000641C50EA0102F7D12B46324621464046AB
:101AE000BDE8F041FFF7B8BE000000002D00000087
:101AF0002B0000002000000030B4002100F124047D
:101B000008E002F00705D208303542EA4372DB08EC
:101B10006554491C52EA0305F3D10468002310A25E
:101B2000250707D5A40600D421B1C46901230DA25D
:101B3000641EC46130BCFFF78FBE10B50446214659
:101B40001068FFF780FE02462046BDE810400023E3
:101B5000D2E7D21D22F00701D1E90023CCE7000033
:101B60000000000030000000F0B40D4601880905B7
:101B700002D5214C7C4402E01F4C7C440E340021F1
:101B800000F1240608E002F00F071209E75D42EABF
:101B900003721B097754491C52EA0307F3D10278F8
:101BA0000023120704D5702D06D009B10223113489
:101BB0002246F0BCFFF750BE01231034F8E770B5A1
:101BC00004460D4621461068FFF73DFE02462946B1
:101BD0002046BDE870400023C6E7D21D22F007036F
:101BE000D3E90023C0E70368126843F020030360D1
:101BF0000823C3610023B7E74410000030B5B0F1FB
:101C00000A024FEA900E71F100034EEA817EB0EBBA
:101C10000E0061EB91014FEA101E4EEA017E10EBBF
:101C20000E0041EB11114FEA102E4EEA016E10EB3F
:101C30000E0041EB11214FEA104E4EEA014E10EB1F
:101C40000E0041EB1141401841F100014FEAD00074
:101C500040EA41704FEAD10110EB80054FEA810460
:101C600044EA907444EB01046D1944EB0404521BE4
:101C7000A3414FF0000348BF0A3200D530BD401CDD
:101C800041F1000130BD70472DE9FF4F0C461E4663
:101C90004FF0FF378BB0D2E90001DDF860800A9089
:101CA0008A46C1F30A5505B93D46002108464FF062
:101CB0000000BAF1000F00F4400005DA00EB8000EC
:101CC0004FF4400101EA50004FEA9059B9F1010F79
:101CD00000DDB9460A9850EA4A000ED044F610508A
:101CE000A5F2FF3545432F14B8F1000F1ED0754201
:101CF000291E1EDDC9F100021CE0B8F1010F4FF0F2
:101D0000000001D0302103E0F24305E02154401CE3
:101D1000B042FBDB30460022002121540B99C1F870
:101D20000880C1E900200FB0BDE8F08FBD1B6D1C1D
:101D3000DEE74A4600DA694206A800F05FFA06AB21
:101D400093E8070003AB83E8070050460A9900F0C8
:101D500015FB8DE80700A0F500501F380090039890
:101D6000002D0ADD42F21F014A460844002303A960
:101D70000390684600F07EFD09E0A0F500504A4659
:101D80001F38002303A90390684600F088FD8DE802
:101D900007000004000C03D04FF0FF30410800E0C2
:101DA0001046B8F1000F03D00022009215461EE045
:101DB000751E05D4FFF722FF303262556D1EF9D52E
:101DC000B3460122084302D000227F1C04E02078A1
:101DD000302801D100227F1E002A099784D01DE0FF
:101DE000112D07DAFFF70AFF303262556D1C50EAF9
:101DF0000102F5D1084302D00098C8B10EE00021DD
:101E0000681E05E0235C625C63542254401E491C3A
:101E10008142F7DBAB46A81B401E0990002004F866
:101E20000B000B98099AC0F80880C0E9002B7AE7EC
:101E300011264FF0000857E72DE9F04F8846044679
:101E4000D21D22F0070191B0D1E90001CDE90A01CC
:101E500000F05CFE02460B98C00F01D02D2007E079
:101E60002068810701D52B2002E0202101EAC00073
:101E7000032A099001D0072A05DB03464146204684
:101E800000F07CF90BE12078800601D5E06900E0E4
:101E90000620B8F1650F814606D0B8F1660F18D05C
:101EA000B8F1670F70D131E00020B9F1110F009047
:101EB00001DB112301E009F101030AAA01A90CA821
:101EC000FFF7E2FEDDE90C70002609F1010583460B
:101ED00047E001204B4600904FF000470AAA01A9B5
:101EE0000CA8FFF7D1FEDDE90DB00C995D46002688
:101EF00010B909F101000D18B9EB050003D4C0F1C8
:101F0000FF3609F10105A5EB09002BE0B9F1010F3E
:101F100001DA4FF001090020B9F1110F0090484695
:101F200001DD112300E003460AAA01A90CA8FFF76E
:101F3000ABFEDDE90C704D46002683462078000795
:101F40000AD4AB4500DA5D4601A8012D04DD411934
:101F500011F8011C302907D04F4502DA17F1040FA0
:101F600004DA012082460FE06D1EEEE7002F02DC4E
:101F7000ED1B3E4403E0781CA84200DD7D1CB81B2D
:101F800000F1010A4FF000472078000703D4AA456A
:101F900001DB4FF0FF3A0021B7F1004F0DF143088C
:101FA0008DF8431024D002202B23002F01DA7F422A
:101FB0002D230A21021EA0F1010000DC5FB197FB76
:101FC000F1FC97FBF1F201FB1C7C17460CF1300C85
:101FD00008F801CDEEE7A8F101000370218809059A
:101FE00001D5452100E06521A0F1010800F8011CA0
:101FF00009980FA9A1EB0807FF1D00B101204119A5
:1020000001EBEA70A1693844081A401EA0612078EB
:10201000C00602D42046FFF7E6FB099828B1D4E9B0
:1020200001219047206A401C20622078C00622D5FA
:102030002046FFF7D8FB1EE0002E04DBB34502DD8F
:1020400001A8805D00E03020D4E901219047206A9A
:10205000401C2062761CAAF101005FEA000A0AD146
:1020600000F088F8C0680168405CD4E9012190471D
:10207000206A401C2062281EA5F10105DCDC07E077
:10208000D4E9012118F8010B9047206A401C206216
:10209000381EA7F10107F3DC2046FFF7BAFB032047
:1020A00011B041E610B5436913B1AFF3008001E010
:1020B000FFF786FC012010BD128800F12401828404
:1020C0000022C2840122EDE711684FF0FF32E9E7F8
:1020D000007B00F08000704770B516460C46054640
:1020E00000F040F8036893F80101012806D0FF2CA6
:1020F0000FD8185D68B101202C7070BDD3F80701AE
:102100003246214603F2071303442846BDE87040D7
:1021100018474FF0FF3070BD754600F0EBF8AE4643
:1021200005006946534620F00700854618B020B5E3
:10213000FEF7BEFCBDE820404FF000064FF0000760
:102140004FF000084FF0000B21F00701AC46ACE85F
:10215000C009ACE8C009ACE8C009ACE8C0098D46CC
:102160007047000010B500F005F8001D10BD00BF5D
:10217000010A000000487047D00500202DE9F04119
:102180001F46044603260168072A01F4006004DBA9
:1021900008B116A505E016A503E008B115A500E0F5
:1021A00015A521F010002060A069C01EA0610FB12C
:1021B000401EA0612046FFF716FB4FB1D4E9012174
:1021C00038469047206A401C2062C01C206206E00E
:1021D000206AFAE7D4E9012115F8010B9047761E31
:1021E000F8D22046FFF715FBBDE8F0814E414E00C6
:1021F0006E616E00494E4600696E66002DE9F0473B
:10220000814616468AB0354878440DC88DE80D00E1
:1022100032487844801C03AC0DC884E80D0041F6B8
:102220009B300844372190FBF1F290FBF1F5A5F1CA
:10223000800501FB12041B3C02D56442012000E032
:102240000020DFF898A080460027FA44AAF1BE0AD1
:102250000EE0E0070AD03246684607EB470101234B
:102260000AEB810100F01BFB8DE8070064107F1C66
:10227000002CEED1194F7F44AE3F19E0E80715D08E
:1022800007EB04100DF1180A90E80E008AE80E0022
:10229000C068F04201D1981908903246012306A97E
:1022A00003A800F0FCFA03AB83E807006D10641C80
:1022B000002DE3D14FF0010332466946B8F1000F1B
:1022C00003A802D000F0D6FA01E000F0E8FAC9E96C
:1022D0000001C9F808200AB0BDE8F087540A0000E0
:1022E00010B50446AFF300802046BDE81040FDF76E
:1022F000BCBF000000487047B00500204FF0013C13
:1023000050F8042B51F8043B9A4221D1A2EB0C0364
:10231000934313EACC1317D150F8042B51F8043B24
:102320009A4215D1A2EB0C03934313EACC130BD1C1
:1023300050F8042B51F8043B9A4209D1A2EB0C034C
:10234000934313EACC13DBD04FF00000704700BF7B
:10235000D01A01BAB1FA81F101F0180122FA01F0A4
:10236000CB40C1F12001DBB2C0B2C01A2CFA01F39C
:10237000D11A914311EAC311E6D170475FEA400CCC
:1023800008BF91F0000F4FEA8C234FEAC12243EAC5
:1023900051514FEA1C5018BF00F5F0404FEA300091
:1023A00018BF41F000415FEA6C5C00F02980BCF18D
:1023B000FF3F08BF40F080407047130C06BF120477
:1023C0004FF0100C4FF0000C130E04BF12020CF172
:1023D000080C130F04BF12010CF1040C930F04BF7F
:1023E00092000CF1020CD30F04BF52000CF1010C4F
:1023F00011464FF00002A0F11F00A0EB0C00704747
:1024000011F0004F08BF704731F000413FF4D5AFE5
:102410000B0C06BF09044FF0100C4FF0000C0B0E14
:1024200004BF09020CF1080C0B0F04BF09010CF1E9
:10243000040C8B0F04BF89000CF1020CCB0F04BFFE
:1024400049000CF1010CCCF12003A0EB0C0022FAA6
:1024500003F302FA0CF241EA030100F101007047B4
:1024600020F07F4C80EA030023F07F47ACEB0703AA
:1024700003F57C5300F0004003F1FF032DE9804990
:102480004FEA154B09B44FEA144325EA0B4E24EAF0
:1024900003480FF2042606EB132749083E785FEA4B
:1024A000320203FB0667C7F5000707FB06F64FEA93
:1024B00054374FEAD64606F1020607FB066CCCF10C
:1024C000005C4FEA1C472CEA074C07FB06F40CFBA8
:1024D00006F504EB15464FEA961634BF00204FF080
:1024E00000404FEAD13706FB07FC4FEA1C4C0CFBBF
:1024F0000BF7D21B03FB0CF761EB07010CFB0EF78C
:10250000B0EB074072EB17420CFB08F734BFA2EBAD
:102510000742B2EB074261EB17414FEA0C444FEA26
:10252000910706FB07FC4FEA1C4C0CFB0BF7B0EBCA
:10253000C74072EB573203FB0CF734BFA2EBC74224
:10254000B2EBC74261EB57310CFB0EF7B0EBC700A3
:1025500072EB57720CFB08F734BFA2EBC702B2EB69
:10256000C70261EB5771039F4FEA816141EA921103
:1025700004EBCC044FEAD1374FEA826206FB07FC3A
:1025800042EA90124FEA80604FEA1C4C0CFB0BF7BA
:10259000D21B03FB0CF761EB07010CFB0EF7B0EB52
:1025A000074072EB17420CFB08F734BFA2EB07425F
:1025B000B2EB074261EB17414FEA8C554FEA9107A6
:1025C00004EB9C2406FB07FC4FEA1C4C0CFB0BF7AE
:1025D000B0EBC74072EB573203FB0CF734BFA2EBF2
:1025E000C742B2EBC74261EB57310CFB0EF7B0EBC1
:1025F000C70072EB57720CFB08F734BFA2EBC7029F
:10260000B2EBC70261EB577115EB4C254FEA8161C4
:1026100041EA92114FEA82624FEAD13742EA9012C0
:1026200006FB07FC44F100044FEA80604FEA1C4CB3
:102630000CFB0BF7D21B03FB0CF761EB07010CFB48
:102640000EF7B0EB074072EB17420CFB08F734BFF4
:10265000A2EB0742B2EB074261EB174115EB1C15E9
:102660004FEA813141EA92414FEA823242EA904296
:102670004FEA80304FEA0C7644F1000448EA034305
:102680004EEA0B484FF0000EB2EB080C71EB03075B
:1026900024BF624639464EEB0E0E4FF0000B001879
:1026A000524149414BEB0B0BB2EB080C71EB0307AA
:1026B0007BF1000B24BF624639464EEB0E0E4FF005
:1026C000000B0018524149414BEB0B0BB2EB080CCD
:1026D00071EB03077BF1000B24BF624639464EEBDA
:1026E0000E0E51EA020718BF46F0010616EB0E76F1
:1026F00055F1000254F1000103D5BDE88901BDE8A0
:102700000088BDE88901BDE80048B619524141EB97
:102710000101A3F10103704780807F7E7D7C7B7A7D
:102720007978777676757473727171706F6E6E6D7D
:102730006C6C6B6A6A696868676666656464636323
:1027400062616160605F5F5E5E5D5D5C5C5B5B5AA9
:102750005A59595858575756565555555454535316
:1027600052525251515050504F4F4F4E4E4D4D4D71
:102770004C4C4C4B4B4B4A4A4A49494948484847BC
:1027800047474746464645454544444444434343FA
:102790004342424242414141002B9C4630D47700A3
:1027A0002BD01CB54FEA370703B44FF010004FF0A1
:1027B0001001BAF1000F06D0BCF1000FDCBF40F0F1
:1027C000080040F008014FF000000FBCBDE81040C9
:1027D0000BF1010BBBF1010F08BF5FEA170722BF26
:1027E00012F1010211F101014FF0004143F1000328
:1027F00000F0004043EA00007047F9D35708D0E7E3
:1028000046EA064613F1400F4FEA16461FDD13F164
:10281000200FDFBF16430A46002120335B42BED0A3
:10282000C3F1200746EA064602FA07F74FEA1646C2
:1028300046EA0706C3F1200722FA03F201FA07F776
:1028400021FA03F14FF0000342EA0702A7E746EA44
:10285000020646EA06464FEA164646EA0106BCBFAD
:1028600046EA0646360C4FF000034FF000024FF0E8
:10287000000194E72DE9804C9A46934670B491E8A4
:10288000380007C831EA400C48BF34EA430C03D58E
:10289000FFF7E6FDFFF780FFF0BCBDE8008C2DE9F7
:1028A000804C9A46934670B491E8380007C810F0FF
:1028B000804F08BF13F0804F03D100F005F8FFF7F9
:1028C0006BFFF0BCBDE8008C20F07F4780EA03007E
:1028D00023F07F4C07EB0C03A3F57C5300F0004082
:1028E000A3F1FE0392F0000F00F0B38095F0000F0B
:1028F00000F077802DE901494FEA11404FEA144674
:1029000021EA004800FB06FC24EA064708FB06F61D
:1029100007FB08F800FB07F718EB06484CEB164CD2
:102920004FEA124B18EB07484FEA15464CEB17409D
:1029300022EA0B4E0BFB06FC25EA06470EFB06F6C9
:1029400007FB0EFE0BFB07F71EEB064E4CEB164C7F
:102950004FF000061EEB074E4CEB174B18EB0B0825
:1029600040F1000018EB0E0B58EB000840F100009E
:102970008F1A4FF000013CBFC943661B14BFB5EB73
:10298000040C00213CBFC943F61B4FEA17444EEA32
:102990008E0E27EA04454FEA1C4704FB07622CEA27
:1029A000074C05FB07F70CFB05F604FB0CFC16EBCC
:1029B000074642EB174216EB0C4642EB1C421BEB60
:1029C000060658EB0202414146EA9E0601D5BDE8E3
:1029D0000189B619524141EB0101A3F10103BDE8A0
:1029E00001894FEA14454FEA114724EA054621EAD6
:1029F000074C05FB07F406FB07F70CFB06F105FB8C
:102A00000CFC11EB074144EB17444FEA124711EB62
:102A10000C4144EB1C4422EA074C05FB07F206FB81
:102A200007F70CFB06F605FB0CFC16EB074642EB22
:102A3000174216EB0C4642EB1C456A1854F1000194
:102A400048BF7047B619524141EB0101A3F10103A0
:102A5000704795F0000F37D04FEA11424FEA144704
:102A600021EA024624EA074C02FB07F106FB07F7BE
:102A70000CFB06F402FB0CFC14EB074441EB174182
:102A80004FEA154714EB0C4441EB1C4125EA074C77
:102A900002FB07F506FB07F70CFB06F602FB0CFC36
:102AA00016EB074645EB174516EB0C4645EB1C426B
:102AB000121951F1000148BF7047B619524141EB5C
:102AC0000101A3F1010370474FEA14454FEA114792
:102AD00024EA054621EA074C05FB07F106FB07F748
:102AE0000CFB06F24FF0000605FB0CFC12EB074254
:102AF00041EB174112EB0C4251EB1C4148BF7047B0
:102B0000921841EB0101A3F101037047490050EA1B
:102B1000C12018BF04204A0D18BF40F0010040F248
:102B2000FF72B2EB515F08BF40F00200012808BFFE
:102B30000520704730380A2801D201207047002054
:102B40007047000010B500290AD00878002807D087
:102B500005487844FFF7D2FB002801D0002010BDC3
:102B60000248784410BD0000460100003E0100000C
:102B700010B500290AD00878002807D00548784405
:102B8000FFF7BCFB002801D0002010BD02487844AC
:102B900010BD0000360100002E010000FFF74CB907
:102BA0000400000800000000000000020001000016
:102BB000100000000000000000000000303132333F
:102BC0003435363738394142434445464030580061
:102BD0003031323334353637383961626364656693
:102BE0004030780002400000000000A0000000001B
:102BF00005400000000000C8000000000C4000007C
:102C00000000409C00000000194000000020BCBEF5
:102C10000000000034400000BFC91B8E000000040B
:102C2000B5400000504BCFD06607E2CF0100000056
:102C30006C4100003E8251AADFEEA7340100000083
:102C4000D9420000DCB5A0E23A301F97FFFFFFFF3A
:102C5000B4450000FD25A0C8E9A3C14FFFFFFFFF59
:102C6000FF3F00000000008000000000FF3F000068
:102C70000000008000000000C42D000800000020BB
:102C8000380000006C010008FC2D0008380000200E
:102C9000D80B0000880100081C0000004300000061
:102CA000F8FFFFFF0C0000000E0000000F00000006
:102CB0002E0000001001000043000000F8FFFFFF9D
:102CC000004040404040404040404141414141403F
:102CD00040404040404040404040404040404040F4
:102CE0004005020202020202020202020202020283
:102CF0000220202020202020202020020202020288
:102D000002029090909090901010101010101010DF
:102D100010101010101010101010101002020202EB
:102D2000020288888888888808080808080808082F
:102D3000080808080808080808080808020202022B
:102D40004000000000000000000000000000000043
:102D50000000000000000000000000000000000073
:102D60000000000000000000000000000000000063
:102D70000000000000000000000000000000000053
:102D80000000000000000000000000000000000043
:102D90000000000000000000000000000000000033
:102DA0000000000000000000000000000000000023
:102DB0000000000000000000000000000000000013
:102DC0000000000000A24A04000000000000000013
:102DD00001020304060708090000000000000000CB
:102DE00000000000000000000000000102030401D8
:0C2DF0000203040607080902040608009C
:0400000508000131BD
:00000001FF
